:100000002020FF1F0905000081050000693E000057
:10001000753E00006F3E0000633E000000000000DF
:10002000000000000000000000000000810500004A
:100030008105000000000000810500007D3E0000F9
:100040008105000081050000810500008105000098
:100050008105000081050000810500008105000088
:100060008105000081050000810500008105000078
:100070008105000081050000810500008105000068
:100080008105000081050000810500008105000058
:100090008105000081050000810500008105000048
:1000A0008105000081050000810500008105000038
:1000B0008105000081050000810500008105000028
:1000C0008105000081050000810500008105000018
:1000D0008105000081050000810500008105000008
:1000E00081050000810500008105000081050000F8
:1000F00081050000810500008105000081050000E8
:1001000081050000810500008105000081050000D7
:1001100081050000A93B0000810500008105000069
:1001200081050000810500008105000081050000B7
:1001300081050000810500008105000081050000A7
:100140008105000081050000810500008105000097
:100150008105000081050000810500008105000087
:100400000403020108070605F8FFFFFF95F9FFFF47
:100410000348044B834202D0034B03B11847704793
:100420000807FF1F0807FF1F0000000005480649D6
:100430000B1AD90F01EBA301491002D0034B03B1F2
:10044000184770470807FF1F0807FF1F000000003C
:1004500010B5064C237843B9FFF7DAFF044B13B10C
:100460000448AFF300800123237010BD0807FF1F6D
:1004700000000000484A000008B5044B1BB10449C5
:100480000448AFF30080BDE80840CFE7000000005B
:100490000C07FF1F484A0000A3F5803A704700BFD1
:1004A000154B002B08BF114B9D46FFF7F5FF0021B0
:1004B0008B460F461148124A121A00F08FF90C4B66
:1004C000002B00D098470B4B002B00D09847002002
:1004D000002104000D000B4800F092F800F0B0F885
:1004E0002000290003F064FD03F0BAFC00000800BE
:1004F00000000000000000002020FF1F0807FF1F71
:100500002C0AFF1F0D06000072B6124812498860BF
:100510004FF000024FF000034FF000044FF00005D1
:100520004FF000064FF00007B846B946BA46BB4642
:10053000BC460A4885460A4880470A4880470A4818
:10054000804762B64FF000004FF00001074A904725
:10055000FEE700000000000000ED00E02020FF1F8B
:100560008D3E000075470000B93E0000B13F00001D
:1005700072B603F08BFC04F0FDF862B6FFF790FF53
:10058000FFF7FEBF002A01D101207047F0B41F46DB
:10059000034603242340002B09D00424E31A0170EE
:1005A00001300824E141013A26D0013BF7D1042A69
:1005B0001ADB13D0002F11D00C460D460E46102A20
:1005C00002DB72C0103AFAE70C2A02DB32C00C3AA6
:1005D000FAE7082A02DB12C0083AFAE7042A03DB2A
:1005E00001600430043AF9E7002A05D001700130B7
:1005F0000824E141013AF7D1F0BC00207047C04621
:10060000002301461A46184600F004BA38B50A4CD1
:100610000A4D641BA4100AD004F18043013B05EB92
:100620008305013C55F804399847002CF9D1BDE801
:10063000384004F00FBA00BF704A00006C4A000056
:1006400070B50D4E0D4D761BB61006D0002401344A
:1006500055F8043B9847A642F9D1094E094D761B3F
:1006600004F0F2F9B61006D00024013455F8043B2A
:100670009847A642F9D170BD684A0000684A000058
:100680006C4A0000684A0000024B0146186800F0FE
:100690004BB900BF0004FF1F024B0146186800F071
:1006A000EDB800BF0004FF1F844641EA000313F0C9
:1006B00003036DD1403A41D351F8043B40F8043B69
:1006C00051F8043B40F8043B51F8043B40F8043B2C
:1006D00051F8043B40F8043B51F8043B40F8043B1C
:1006E00051F8043B40F8043B51F8043B40F8043B0C
:1006F00051F8043B40F8043B51F8043B40F8043BFC
:1007000051F8043B40F8043B51F8043B40F8043BEB
:1007100051F8043B40F8043B51F8043B40F8043BDB
:1007200051F8043B40F8043B51F8043B40F8043BCB
:1007300051F8043B40F8043B403ABDD2303211D36B
:1007400051F8043B40F8043B51F8043B40F8043BAB
:1007500051F8043B40F8043B51F8043B40F8043B9B
:10076000103AEDD20C3205D351F8043B40F8043B6B
:10077000043AF9D2043208D0D2071CBF11F8013B69
:1007800000F8013B01D30B8803806046704700BF2F
:10079000082A13D38B078DD010F003038AD0C3F13E
:1007A0000403D21ADB071CBF11F8013B00F8013B20
:1007B00080D331F8023B20F8023B7BE7043AD9D3DF
:1007C000013A11F8013B00F8013BF9D20B780370B4
:1007D0004B7843708B78837060467047F0B486071F
:1007E00046D0541E002A3CD0CAB2034602E014F19F
:1007F000FF3436D303F8012B9D07F8D1032C29D9F8
:10080000CDB245EA05250F2C45EA054533D9A4F1BB
:100810001006360903F1200707EB061703F1100253
:1008200042E9045542E902551032BA42F8D1721C2D
:1008300014F00C0F03EB021204F00F0613D0331F59
:1008400023F003030433134442F8045B9342FBD1C7
:1008500006F003042CB1C9B21C4403F8011B9C42EE
:10086000FBD1F0BC704734461346002CF3D1F8E7B7
:1008700014460346C2E71A462646E0E700293CD064
:1008800038B551F8043C0C1F002BB8BFE4180546DE
:1008900000F010F9234B1A682AB1A2420DD9216841
:1008A0006018824223D0626028461C60BDE8384050
:1008B00000F002B9A34203D81A465368002BF9D1BD
:1008C00011685018A04219D024D8216860188342BA
:1008D00006D0636054602846BDE8384000F0ECB8AC
:1008E000D3E900030144636021605460F3E7D2E977
:1008F0000002014462602160D6E77047206801442D
:10090000501883421160E6D1D3E9000301445360DB
:100910001160E0E70C232B602846BDE8384000F06A
:10092000CBB800BF2407FF1FF8B5CD1C25F0030589
:1009300008350C2D38BF0C25002D064633DBA942A7
:1009400031D82A4F00F0B6F83A6852B113685B1BF1
:1009500004D43FE023685B1B29D522465468002C51
:10096000F8D1796800293BD02946304600F040F89C
:10097000431C28D0C41C24F00304A04205D0211A33
:10098000304600F035F801301DD02560304600F0CB
:1009900093F804F10B0020F00700231DC21A01D0C8
:1009A0001B1AA350F8BD0C2232600020F8BD0B2B9F
:1009B00005D8A242636811D05360E7E7144623606C
:1009C0001C442560E2E70C233046336000F074F8E5
:1009D0000020F8BD0B2BF1D8536814463B60D5E7D7
:1009E000304600F005F87860BEE700BF2407FF1F1F
:1009F00038B5074C002305460846236000F05EF832
:100A0000431C00D038BD2368002BFBD02B6038BDC1
:100A1000280AFF1F2DE9F843224C25680DB36C68A6
:100A20001F2C3BDC984691460F46064688B1D5F808
:100A3000880028B3D0F8003140F824900122A24069
:100A400000EB84011343022EC0F80031C1F880800E
:100A500010D0A31C01346C6045F823700020BDE861
:100A6000F883114E114D2560002ED8D03468C5F89A
:100A70008840D4E7D0F804311A43C0F80421E8E7ED
:100A80000B4B5BB14FF48470FFF7FEFD30B10023D8
:100A90006C68C0E94033C5F88800CDE74FF0FF30FF
:100AA000DDE700BFB807FF1F000000002C07FF1F95
:100AB00089060000704700BF704700BF044A05491F
:100AC0001368002B08BF0B46184410601846704787
:100AD000BC07FF1F2010FF1F80B584B000AF7860F7
:100AE000786800F011F8F860FB68002B04D1044B23
:100AF0001B680448984700E000BF1037BD4680BD22
:100B0000C007FF1F04F0014038B1C3693BB11B6847
:100B1000022B14BF6D2000207047042070476D2009
:100B2000704710B578B1013B41EA020423420CD171
:100B300003688B420BD840680A44184482428CBF39
:100B40006620002010BD0420FCE76520FAE766203F
:100B5000F8E770B50E4614460546B8B120220021CC
:100B60002046FFF73BFEEB6829686360D5E9013258
:100B7000B3FBF2F30822A3600423C4E90332C4E9FF
:100B80000523761A2660E361002070BD0420FCE78F
:100B900010B5013A40EA0104224215D1012B05D1DA
:100BA000B0B908290CBF0020042010BD83B9013959
:100BB0000144FF290AD9B0F5000F09D30548814245
:100BC0008CBF04200020F0E76520EEE71846ECE734
:100BD0000420EAE7FF0380002020704700207047D0
:100BE000436910B49C680023A4461A465DF8044B80
:100BF00019466047044B00205861986172B65A69E3
:100C0000013A5A6162B67047F007FF1F024B01229A
:100C10005A701A70704700BF0909FF1F064B074A38
:100C2000187B93F84D30107000218B4208BF0846A6
:100C3000517000F001007047F007FF1F0909FF1F06
:100C400037B50A4C00238DF8073023690A465D6CDE
:100C500001460DF1070304F12000A8479DF80700A5
:100C6000003818BF012003B030BD00BF6804FF1F6B
:100C7000BFF34F8F0549064BCA6802F4E062134385
:100C8000CB60BFF34F8F00BFFDE700BF00ED00E07A
:100C90000400FA051FB5074B0391CDE90130064B5F
:100CA000D86943690C229C6801A90023A04704B0BD
:100CB00010BD00BFA00000026804FF1F10B504466D
:100CC00005480369211DDB69203098472178BDE87C
:100CD0001040FFF7DFBF00BF6804FF1F10B5064BD1
:100CE0001B680446D0E90212DB6840689847217807
:100CF000BDE81040FFF7CEBF6804FF1F10B5064BDC
:100D000081689B680446DB68007998472178BDE8D4
:100D10001040FFF7BFBF00BF6804FF1F70B5184C3D
:100D2000017AA36800799E688AB000256B4601AA03
:100D3000CDE90055B047E3680199DB6803901D6178
:100D4000009B8DF80A509B08A722ADF808205A1C7A
:100D5000D2B28DF80B2004A801EB8303994209D18C
:100D6000E069436901329C689200002302A9A04710
:100D70000AB070BD51F8045B40F8045BEEE700BFB9
:100D80006804FF1F014B036000207047CD16000070
:100D900010B5064B1B6804465B69D0E90101984712
:100DA0002178BDE81040FFF775BF00BF6804FF1F42
:100DB0002DE97747DFF8FC80D8F81C00446900264D
:100DC0008DF806604546002C51D0D8F80C30D96813
:100DD0000B68012B56D0646801F1080233460431D8
:100DE000A047044620B1A0F51C53123B012B3ED86E
:100DF000E968CA68D2F80890B9F1000F37D0D2F884
:100E0000048098F8006006F1FF3A5FFA8AF3112B2C
:100E100004D90023136242F210742EE0896806F1AF
:100E20000053013B01EBC30010620028F3D051F8DE
:100E30003330002BEFD02B691D489B690DF1070162
:100E400098470446C8B99DF807302BB14FF4E753D3
:100E500043FA0AF3DB070ED5EB68DB681B6A4946E9
:100E60001B6840469847EB68DB6801221A60204601
:100E700003B0BDE8708742F2117431462046FFF797
:100E800009FFF4E70B6A5BB15B684BB10DF106003B
:100E90009847044620B1D8F80C30DB681E60E6E7BE
:100EA000EB689DF80620DB6800241A60DFE700BFCE
:100EB0008804FF1F6804FF1F024BDB68DB6800200B
:100EC000186070476804FF1F00B3FAB109291FD8E2
:100ED000DFE801F005090B0E10121416181AC3688A
:100EE0001360002070474368FAE743685B08F7E740
:100EF0008368F5E70368F3E70123F1E74369EFE768
:100F00008369EDE7036AEBE7436AE9E7042070478A
:100F10006A20704798B191B10A4B9B78DAB203F01E
:100F20000303022B02D100200870704702F0C003B7
:100F3000802B0CBF012302230B700020704704207C
:100F4000704700BF0000024010B530B3144A41F2B0
:100F50004C030221D358C3F303630F2B1ABF114A6A
:100F600032F813204FF400224FF0000318BF920212
:100F7000C0E900324FF40062C0E902120A4991F858
:100F800028404FF48072A240426191F82B20826188
:100F9000C0E908330361184610BD0420FCE700BF18
:100FA000007004409C490000000002401D4B1B687B
:100FB000C3F30333033B082B1DD8DFE803F03005F0
:100FC0001E2124272A1C2D004FF4C0435A1E164907
:100FD0001A4249680CBF01220022C2F10300B3FB90
:100FE000F0F3C3F100500861C2F102026FF06040FB
:100FF00003FB02034B61002070474FF40043E5E719
:101000004FF44043E2E74FF48033DFE74FF4C0335F
:10101000DCE74FF40033D9E74FF48023D6E74FF4F1
:101020008043D3E7007004406804FF1F054B10B5F0
:101030005C68E06800B910BD036803B198471034DC
:10104000F7E700BF6804FF1F114B9A68126970B57B
:101050005C68D2E91635266801399E42014405D004
:10106000A84205D8994203D301200EE0AB42F7D144
:10107000D2E918322469A34201D1934206D09042AA
:1010800004D88B428CBF0020012070BD0020FCE7FB
:101090006804FF1F10B50F4B5B68136039B113680C
:1010A0002BB11C6834B95C6834B9DC6824B942F2ED
:1010B000D8700BE084420AD85C68844207D30138B8
:1010C000014442F2D8708C4228BF002010BD10337A
:1010D000E3E700BF6804FF1F07B5421E033203D9D0
:1010E000002003B05DF804FB054A9042F8D001AA45
:1010F0000221FFF7CFFF0028F2D1019B187AF0E719
:101100000905000010B5044C206820B1006910B139
:1011100080470023236010BD9009FF1F73B505466B
:1011200016460C4689B1FFF78FFF80B901AA214608
:101130002846FFF7AFFF30B9019BDB683246DB681A
:1011400021462846984702B070BD0846FBE742F2A8
:10115000D870F8E773B501AA05460C46FFF79AFF69
:1011600068B9019BDB685E696EB121462846FFF7CE
:101170006BFF50B921462846B04702B070BD002C25
:1011800008BF0020F9E76620F7E742F2D870F4E7DD
:101190002DE97741064690460C46D1B1FFF754FF42
:1011A0000546C0B901AA21463046FFF773FF58B97A
:1011B000019BDB6842469B68214630469847074BB7
:1011C00028B9019AD2681A6003B0BDE870811D6029
:1011D000FAE70846F8E742F2D870F5E79009FF1FF2
:1011E00073B5054616460C4661B101AAFFF752FFDA
:1011F00030B9019BDB6832465B6821462846984738
:1012000002B070BD0846FBE773B50C4C65682369F6
:1012100004F120062A46DB6A0421304698472369F8
:1012200001AADB6A012130469847019B2A68013BED
:10123000134400206B6002B070BD00BF6804FF1F44
:10124000024B1B6883F31088704700BF200AFF1F02
:10125000EFF31082014B1A6072B67047200AFF1F2D
:101260002DE97841134C05460E46FFF7F1FF23693F
:101270000A46D3F81080104B014604F12000C04705
:10128000FFF7DEFF98B9A3681B691B6B7BB1FFF703
:10129000DFFFA36822691B69D2F8248093F85030DD
:1012A0003246294604F12000C047FFF7C9FFBDE8D8
:1012B000788100BF6804FF1F6B66656B2DE9704382
:1012C0002A4DAB68D5F804801E69D8F80000B36DCC
:1012D000D6F8189083420FD026D8F36DD8F80410B2
:1012E0005B42C9F1000903EA09035842814225D84B
:1012F00000242046BDE87083F26D9342EDD1FFF7E4
:10130000A7FF2B691A499B6805F1200098470446FE
:10131000FFF796FF0028ECD1AB681B691B6B9BB9EC
:10132000144B01221A70E4E7C9F100011940D4D02E
:10133000FFF796FF04460028CFD0DAE70131BDE879
:1013400070431944FFF78CBFFFF782FFAB681A693F
:101350002B6992F850101B6A05F120009847FFF79F
:101360006FFF0028DCD00446C3E700BF6804FF1FFE
:101370006B66656BF808FF1F10B50446FFF79EFF0C
:101380002178BDE81040FFF785BC30B501B930BD0C
:10139000C40701D4012905D112F8013B00F8013B33
:1013A0000139F3E7830701D4032904D832F8023B5B
:1013B00020F8023B02398B08E8D021F00303C4185F
:1013C000A04201D3C91AE1E752F8045B40F8045B7C
:1013D000F6E708B5FFF7D9FF002008BD08B51346AA
:1013E00002461846FFF7D1FF002008BD124B9B684C
:1013F00001381B6917280DD8DFE800F018181818F5
:10140000181818180C0F18180C181818180C0C0CA1
:101410000C140C1842F63C007047012909D81963D6
:1014200000207047022904D81965F9E742F63D000B
:10143000704742F63E0070476804FF1F73B51D46B3
:101440002F4B16469A6801381169172853D8DFE8E0
:1014500000F00D0C0F1113151B1D521F21285217E0
:1014600019313845484A4C4E52500C3104241AE088
:101470001031FBE71431F9E71831F7E72031F5E7D0
:101480002431F3E72831F1E73431EFE72C31EDE790
:101490003031EBE7D86943695B69984719490860BF
:1014A000E4E75831102405B12C603EB331600020D0
:1014B00002B070BD144A134941F22403D3580B60A3
:1014C000D4E71B6911489B690DF1070198479DF806
:1014D00007300C49003B18BF0123F0E738310C24DA
:1014E000E1E74431C2E74831C0E74C31BEE7503153
:1014F000BCE70831BAE742F63C00D9E73046D7E707
:101500006804FF1F1C0AFF1F007004408804FF1FAF
:1015100070B5494D494AAB681C69494BC4E9002381
:10152000484BA36001264EF6FF73C4E90C632B6998
:1015300004F11002DB6A042105F1200098472B69B1
:1015400004F11402DB6A314605F1200098472B694B
:1015500004F11802DB6A002105F1200098472B698D
:1015600004F11C02DB6A022105F1200098472B6977
:1015700004F12002DB6A032105F1200098472B6962
:1015800004F14402DB6A052105F1200098472B692C
:1015900004F14802DB6A062105F1200098472B6917
:1015A00004F14C02DB6A072105F120009847A3698A
:1015B000254A5B421A40A265244A62EA0303E365B6
:1015C000234B23660022234B63666B69E2601A6833
:1015D00032BB214B41F258029A58226441F25C021C
:1015E0009B58E3631D4B1B68A3636B681A695B69B7
:1015F000626201339B1AA362E36E013319D1236F38
:10160000013316D1616F42F6A20342F6A302B1F193
:10161000FF3F08BF1346E36201232365002070BD2E
:1016200094F8781011421EBFE1680A43E260183353
:10163000CDE742F6A203EEE76804FF1F0000024B6D
:10164000000201500100015400000000774D00002D
:101650000000FF1F1F20FF1F007004406080044037
:10166000426A536813B5836113684168033B8B4238
:101670000446836020D213890BBB12488DF80730D3
:1016800003690DF107019B69203098479DF8070019
:1016900060B9D4E9013293420BD99B1A63600A4BBB
:1016A00023600123A266A36002B010BD42F28170E4
:1016B000FAE742F27870F7E742F27670F4E742F226
:1016C0007770F1E76804FF1FAD2A0000436A5A896A
:1016D0008282DA685968023A4260064A914206D12B
:1016E0001B7A012B03D8044B03600020704742F2A1
:1016F0007570704753544D506116000098B183685F
:10170000FF2283F88020002093F8842083F884004F
:1017100083F8980083F8940093F8002142F0C00207
:1017200083F8002170470320704770B58368FF225B
:1017300083F8882093F8942042F0020283F89420E2
:10174000002283F89820456825F4FF7525F00105EF
:10175000144600F12C0C45EA421141F0080E0C60D1
:10176000CEF8004041F0100E41F018015601CEF8BD
:1017700000400C6046F0100101444CF80640CC6279
:1017800002F130010132082A03F82140E3D180F848
:10179000204193F8942002F0FD0283F89420FF2268
:1017A00083F88C20892283F8842080F8214193F8E3
:1017B000942002F0DF0283F8942070BD20B14368CA
:1017C00023B15B6900681847032070470620704703
:1017D00007B50B078DF8071007D40DF10702042198
:1017E000FFF7ECFF03B05DF804FB0420FAE71FB538
:1017F0000446002835D08368002B34D00A7A102A9A
:1018000019D100220B21FFF7D9FF0223002284F80F
:101810008E3084F88C20234604F18001C3E9032232
:1018200008339942FAD1A368002201212046984743
:10183000002004B010BD130715D4530003F01E039D
:1018400043EAD21300EBC304E36863B10A68019270
:101850004A6802924A7A8DF80C2001A922699847B9
:10186000E7E70320E5E70120E3E71FB54B0003F0BE
:101870001E0343EAD11300EB031404F1280294F889
:101880002D40640613D500EB03138DF80C101B6A72
:10189000019300214FF0FF348DF80D10029453791D
:1018A00061F386135371006801A9FFF7A0FF0020C0
:1018B00004B010BD70B5044601F00F06CB0943EA31
:1018C0004605FFF7D2FF3036A368002003F8260054
:1018D00004EB0514A38D60F30903A38570BD30B438
:1018E0000D4648B1446854B12D064CBFA468E46865
:1018F0000068A44630BC6047032030BC7047062017
:10190000FBE710B50A46044650B1837C53B9006822
:1019100024230221FFF7E3FF08B90123A37410BDBC
:101920000320FCE70220FAE72DE9784115460E4630
:1019300000293CD0002A3AD000222A6033B3012B80
:1019400037D14FF002081C4B1878E8B11B4CA37B31
:1019500023B1A06804F12001FFF7D3FF0123A37393
:1019600072B663690133636162B660690028FCD1B5
:1019700094F8203043450CD0B8F1010F19D1022B57
:1019800042F2127018BF0120BDE878814FF00108C3
:10199000D9E794F8232094F8223043EA0223E2693D
:1019A000043A9A4205D3064A32602B60ECE70420E1
:1019B000EAE70120E8E700BF0909FF1FF007FF1F62
:1019C0001408FF1F013938B5112910D8DFE801F0DC
:1019D000090F0F0F0F0F0E274D545D767A760F0FFC
:1019E0003C433D4B002083F84D0038BD0AB9002030
:1019F000FBE7394B012183F84D10147883F84E40F2
:101A00008C42F4D1354D2B68986883F8464003F139
:101A10002001FFF776FF2B6883F84740E7E72E4960
:101A200091F84D30002BE2D013881C0ADFD12B4AED
:101A3000DBB2126881F84F30906882F8483002F1CA
:101A40002001FFF75EFFD2E7002AD0D0224B93F8A7
:101A50004E301370CBE7002AC9D01088000A2FD16E
:101A60001D4B93F84F301380BFE7002ABFD01C4BAB
:101A7000136012235360BAE7002AB8D0107AF8B97D
:101A8000184B136029235360AFE7002AAFD0907A38
:101A9000154B18B9196811605B68F4E79B681489E5
:101AA00019898C420CD103280AD819685B6800B2E6
:101AB00051F8201053F820301160DBE7002A96D04F
:101AC000052092E7002A92D0107A0028F8D1074B1F
:101AD00013604C23D7E700BFF007FF1FEC07FF1F81
:101AE0000D05FF1FE404FF1FA005FF1F5405FF1F86
:101AF00070B5052A05460C46DDE9040113D12278AC
:101B000012F0600F0DD012060BD4E288002A08BF35
:101B10000123DB01284603F08001BDE87040FFF798
:101B200057BE0123F5E70A68E3889A4288BF0B6035
:101B30000B68026880212846FFF7D1FE58B994F956
:101B40000030002B07DA0346024601462846BDE86E
:101B50007040FFF7C4BE70BD83682DE9774105462C
:101B600043B300260120AB681A79B24202DC03B00D
:101B7000BDE870819B682C6813F826808DF807807B
:101B8000A4B10DF1070203212046FFF717FE18F05C
:101B900008020DD14FEA480303F01E0343EAD813AD
:101BA00004EBC304C4E903220136DCE70320FBE7AE
:101BB0000420F9E70120DAE710B5044638B1FFF751
:101BC000CBFF0023C4E900332373A37310BD0320AC
:101BD000FCE7104642B100235374536833B11B68CD
:101BE00023B10A460121184703207047012070479E
:101BF000104642B100239374536833B11B6823B17C
:101C00000A46022118470320704701207047000050
:101C10002DE977474268037B9268517999420446DF
:101C200003D2012003B0BDE870871268002AF8D003
:101C300003F10053013B02EBC30612F833504FF09F
:101C40000C0C00239D42ECDD70680CFB03F2811844
:101C5000825C032A43D10D7A00239D4235DC0026A5
:101C6000CB786373002EDCD00025DFF88090DFF89E
:101C700080A0A6600120A8463379AB42D2DDB368CC
:101C80008DF8048003EB850213F825308DF80230BF
:101C90005188ADF80010206852788DF80320D909DA
:101CA0000CBF4A465246E0B113F0080F1BD15B004F
:101CB00003F01E030B4300EBC303C3E9032402211B
:101CC0006A46FFF77BFD0135D6E748681A0100EB4D
:101CD0000316805CA27B9042C2D00133BDE7013382
:101CE000B0E70320EFE70420EDE700BFF11B0000A1
:101CF000D31B00007FB504461546002A00F0C180C2
:101D0000002800F0BE800139052908D8DFE801F07D
:101D10006203091C2C430023037343748374012062
:101D200010E04368002BFAD0037B12789A42F6D079
:101D30000BB1FFF711FF2B7823730023A373204609
:101D4000FFF766FF04B070BD4368002BE7D015882D
:101D5000437BB3EB152FE2D1837BEDB2AB42DED0F8
:101D6000FFF7FAFEA573EAE74368002BD7D0836834
:101D7000002BD4D000260120A3681A79B242E1DDFD
:101D80009B682A7813F82610914202D12068FFF749
:101D90001FFD0136F0E74368002BC0D08368002B9D
:101DA000BDD000260120A3681A79B242CADD9B6823
:101DB0002A7813F82630934208D18DF804301B0797
:101DC000206805D401AA0521FFF7F8FC0136EAE7EF
:101DD0000420FBE71268107800F01F0001289ED154
:101DE000617B13799942ADD15378013B0A2B4AD8D4
:101DF000DFE803F006151F494949494922373F00EA
:101E000053885BBAADF80C3063681B6801AA0321E4
:101E100020469847019B6B60029BAB6092E704F100
:101E20000F06636832461B680421204698476E609F
:101E300088E704F11006F4E75388297BAA685BBAA7
:101E4000ADF80C3063681B6819B10292092101AA30
:101E5000DEE76968CDE9011201AA0621204698470C
:101E600070E732F8023F1B0AE373636807211B68BF
:101E7000F4E753882246082102F8103F63681B6884
:101E8000ECE703205EE705205CE70000054A1378D5
:101E90000BB962B67047013BDBB21370002BF8D070
:101EA000704700BF000EFF1F034B1A7802B972B6CD
:101EB0001A7801321A707047000EFF1F08B5FFF73D
:101EC000F3FF074B5A683AB1987D28B9C3E901007E
:101ED0009875FFF7DBFF08BDFFF7D8FF0420FAE78E
:101EE000000EFF1F10B5044678B1436823B15B684C
:101EF0000068984700236360FFF7D6FF002020604A
:101F000084F88D00FFF7C2FF10BD0320FCE700003E
:101F10002DE97841234CFFF7C7FF6368FBB1A57D2E
:101F2000EDB9FFF7B3FF4FF00C08A3681A7AEEB2D1
:101F3000B24218D91B6808FB06F633449A68127936
:101F4000012A02D15868FFF737FEA3681B681E44B8
:101F5000B3681B790BB9706898470135E5E7BDE8B0
:101F60007841FFF793BF6068FFF7BCFF0146B0B947
:101F7000FFF7A4FF0C4B0D4A996013600C4A41F225
:101F80003403D15849030AD50A494FF40010C1F867
:101F90008400C1F88401D15821F48021D150BDE8DA
:101FA000788100BF000EFF1FF007FF1FEC07FF1F27
:101FB0000070044000E100E070B50E4642EA4604BD
:101FC0001D461146FFF770FF00EB041303F1280CC8
:101FD00093F82D3043F040038CF80530436823F428
:101FE000FF7424F0010444EA011242EA46119CF80D
:101FF0000520104BC2F3001241EAC20255609CF862
:102000000520C2F3001441EAC401049CC2F3C002DB
:1020100003EA044343EA821343F088030B60FFF7AB
:1020200035FF826892F8943003F0DF0382F8943031
:10203000002070BD0000FF0337B590F82D4000F17F
:102040000C03C4F3001224F0280403EBC203082598
:10205000002244F02004C0E90952036280F82D40B8
:1020600011460095FFF7A8FF03B030BD2DE973437B
:102070004D0105F4F07589464119044691F82D008B
:10208000C0F38016400658BFC1E9082304EB0500E1
:1020900058BF8E6290F82D6046F0200680F82D60C3
:1020A000868DC6F309069E4228BF1E46836A1344E6
:1020B000E26900F128018AB194F8200170B9402E3C
:1020C0000CD843EA060C1CF0030F07D04B7960F3E1
:1020D00045134B71012384F82031134694F82121D4
:1020E0000ABB009609F00F012046FFF765FF804606
:1020F000AEB919F00F0F12D105F128012544214482
:1021000095F82D30C3F3001383F001024B7923F0CF
:10211000500343EA02134B712046FFF78DFF404600
:1021200002B0BDE870834FF00108E1E72DE9734389
:102130000446480000F01E0040F001000E4604EB8B
:1021400000114FEA001891F82DC01CF0400FCCF39D
:10215000801E07D1C1E908234CF02002C1F828E015
:1021600081F82D2004EB08018A8DC2F309059D42F8
:1021700028BF1D4694F82131D3B904EB00108B6AB7
:10218000026A0095134406F00F0101222046FFF772
:1021900013FF8146A044D8F828302B4304D13307DD
:1021A00002D12046FFF748FF484602B0BDE87083E1
:1021B0004FF00109EEE738B5044601F00F00430087
:1021C000CD0943EAD111090101F1280323445A79C9
:1021D00022F00C025A7162682B0122F4FF7222F085
:1021E000010243EA401313431A68520707D56218E5
:1021F000928DC2F30902120442F008021A6043F001
:1022000008031A68520707D521448A8DC2F30902D0
:10221000120442F008021A60A36803EB800393F8EB
:10222000C02002F0FD0283F8C02050EA050302D16D
:102230002046FFF701FFA26892F8943003F0DF0315
:1022400082F89430002038BD2DE978410C460546CF
:10225000002800F0F2800C2900F2F180DFE811F094
:102260000D002700370078007F00B100B800BE00E5
:10227000D000EF00EF00D600E9008368002283F869
:1022800000211A7F510742BF1A7F42F080021A775D
:1022900093F8082142F0100283F8082193F8942063
:1022A00042F0010283F894202046BDE878818368DB
:1022B0001A7F520742BF1A7F02F07F021A7793F803
:1022C000082102F0EF0283F808210024ECE7002A3D
:1022D00000F0B58090781688D5F808C000F00F019E
:1022E0004B00C40943EAD010D378012B0FFA81FECA
:1022F00022D140F2FF339E4228BF1E4605EB00125A
:1023000026F44056938D760423F49F4323F07F03F5
:10231000760C334393850CEB8E03012C93F8C0208D
:102320000CBF0420082002430C4383F8C020CCD10A
:102330002846FFF781FEB7E70CEB8E02402E92F89D
:10234000C03043F0010328BF402682F8C030D5E7F3
:10235000002A74D0BDE878411178FFF7ABBA002AA3
:102360006DD0117801F00F084FEA480343EAD11607
:10237000CC09FFF77AFA05EB061303F1280293F86C
:102380002D3043F0040353716B68240123F4FF7371
:1023900023F0010344EA48141C435379C3F30013A8
:1023A00044EAC3049388AA68C3F309031B0443F0F7
:1023B0008C03236092F8943003F0DF0382F89430AA
:1023C00083E7002A3BD0BDE878411178FFF7F3BEE0
:1023D0000124002A3FF468AF148076E77AB31378BB
:1023E00013F008042BD1580000F01E0040EAD3106F
:1023F00005EB001595F82D30C3F38003538053E7A8
:10240000EAB18368127883F898205EE7002464F0CC
:102410007F01E6B2C9B22846FFF74CFA01343146D3
:102420002846FFF747FA082CF1D12846FFF77DF937
:102430004BE722B10024147036E7032434E701246B
:1024400032E700002DE970430E469046054640BB3A
:10245000154C164B84F83A0104F59E72626304F140
:102460001809FF222362012183F880200246484692
:10247000FFF7EAFE0E4B226AE361C3F3072182F8FD
:102480009C10C3F307411B0E82F8B010484682F837
:10249000B430FFF74AF9C8F80090A6612846BDE8B5
:1024A00070830625FAE700BF000EFF1F00200740DB
:1024B000000CFF1F70B5134CD4F87C511646FDB9C3
:1024C000FFF7F2FC63685BB1A27D824208D1C4F8D9
:1024D0007C31FFF7DBFCD4F87C312BB9032002E020
:1024E000FFF7D4FC042070BDFF23C4F8801184F8EA
:1024F000885184F88A3104F5BE7434602846F2E7C6
:102500000220F0E7000EFF1F2DE9704F89461446A8
:1025100002B31C4DFFF7C8FC6B68984218D1FFF757
:10252000B5FCDFF864B04FF0000801264FF00C0A4C
:10253000AB681A7A5FFA88F0824220D91B680AFBDE
:10254000003083681B79012B08D0ABB9012306E06A
:10255000FFF79CFC04231846BDE8708F00230BEBAB
:10256000031340689B68224649469847052803465E
:10257000F1D0002808BF002608F10108D8E733464B
:10258000E9E700BF000EFF1FBC4900002DE97F4FA7
:10259000914604460E46FFF787FC224B5A6890424C
:1025A000984638D1FFF772FC01292CD11E4B0293BB
:1025B0008DF80C1010B3DFF878B0C0F814B008F143
:1025C000040AC0F818A002AA0221FFF7F7F805468E
:1025D000A0B98DF80A00C4E903BA02AA0221204674
:1025E000FFF7ECF850B180230DF1070203212046DC
:1025F0008DF80730FFF7E2F8C4E905550B4A0221D0
:102600002046FFF781FFD8F808304A465B6831461C
:102610002046984702E0FFF739FC042004B0BDE8EB
:10262000708F00BF000EFF1F40008000040EFF1FD0
:1026300001320000054B1A68012A03D800221A60F3
:1026400062B670471A68013A1A607047FC08FF1FAB
:1026500072B6024A1368013313607047FC08FF1F0B
:1026600038B50446FFF7F4FF07486168036904F1D1
:102670000C025D6BA3682030A847FFF7DBFF2178D1
:10268000BDE83840FEF706BB6804FF1F70B504685C
:1026900015467AB3FFF7DCFF1B4A1C4E136843F460
:1026A000802313601A4B4FF041429A605E604FF0F6
:1026B00043469E601C609A602C468A0711D124F024
:1026C0000306A2080E44B14219D16FF0030303FBC5
:1026D00002440F4B0C448C4208D011F8012B1A70A5
:1026E000F9E711F8012B1A70013CE6D1084B1C6880
:1026F000FFF7A0FF426804602A44426070BD51F8B1
:1027000004CBC3F800C0DEE73C800440B71DC10421
:102710000020034037B5426812F0030204460D461C
:102720000BD00A4B1988ADF804109B788DF8063051
:10273000C2F1040201A9FFF7A9FF2368044A2B6034
:10274000136823F48023136003B030BDE04700001A
:102750003C800440254B9A6830B51469E16A42F622
:10276000A302914285B021D0226F62B1E16E504246
:10277000814208D858680368994204D340685318C6
:102780005D1E854214D942F6A4032BE0421A02A82A
:10279000FFF77CFFD4E91B231A44A2F54342D03A49
:1027A0004CF2D03111E042F6A003E36201201BE0BD
:1027B00000204FF0FF35CDE902504CF2CF3081427E
:1027C00003D84CF2CC308342E0D802A8FFF75EFF7A
:1027D00001A902A8FFF79EFF626F019B9A42E2D017
:1027E00042F6A103E362002005B030BD6804FF1F7C
:1027F0002DE97741DFF87880416A00F11C06044634
:1028000010223046FFF742FFD8F80030626A9B681A
:10281000E06D10219847054648B9E36D1033E36534
:10282000236E103B102B236605D90E4B23602846E0
:1028300003B0BDE870810BB10B4BF7E7D8F800305F
:102840001B69984705460028F1D101A93046FFF7DA
:1028500061FF626E019B9A4201D1044BE6E742F2AE
:102860007A75E4E7F127000075280000AD2A000022
:102870006804FF1F73B5154E426A336804469B68AF
:10288000D0E9170198470546E8B9A3682269013BDA
:102890009A420FD21022616A04F11C00FFF7F6FE83
:1028A00001A9FFF737FF626E019B9A4209D042F2FD
:1028B0007A7508E033681B6998470028EAD0054616
:1028C00001E0034B2360284602B070BD6804FF1F7F
:1028D000AD2A00002DE97847502200216748FDF716
:1028E0007DFF674A41F23403D15841F48021D15031
:1028F000D35859030ED4634B9B681B6993F8782017
:1029000022F0100283F87820DA6822F01002DA60F0
:102910000120B0E05C4B93F80C2142F0800283F878
:102920000C2193F80C211206FBD4554841F2040106
:10293000425842F4E022425093F8402142F0800293
:1029400083F8402193F8442142F0020283F84421A5
:102950004C4B9B681B69DA6F01320AD04B4AB3F8C3
:102960007C101172090A5172B3F87E109172090A33
:10297000D172D3F88000431C02D01021FEF760F919
:102980003E4D43490023A5F84C30AB602B604B68AB
:102990008846002BBCD03F4CFFF786FA636813B122
:1029A000FFF774FAB4E7A375FFF770FAA160FFF7B9
:1029B0007BFAD4F8901139B1FFF768FA6068FFF735
:1029C00091FAFFF77BFAA3E784F81D12FFF75EFA8E
:1029D000314BC4F8983104F5C873A4F81C121E4694
:1029E0000A4601311029C3E9032203F10803F8D193
:1029F0002A4A2B4BC4F8943111460020FFF722FDE0
:102A000018B12648FFF76EFAD8E70223666084F80B
:102A10001E3206464FF00C09A3681A7AF1B28A42B8
:102A200015D909FB01FA196851448B681B79012BF0
:102A300003D10A1D0020FFF73DFDA368196851442A
:102A40008B68187908B90A1D80470136E4E7D8F881
:102A5000003060685B68AB60124B28601D60124BF1
:102A6000402283F835234FF400125A6000221146A9
:102A7000FEF7A4FE0020BDE8788700BFF007FF1F27
:102A8000007004406804FF1F002007400D05FF1F71
:102A9000D804FF1F000EFF1F8D250000900FFF1FA1
:102AA000DC490000EC07FF1F00E100E0436A37B596
:102AB000044600F158050FCB85E80F0004F16702CA
:102AC0005A2315F8011FAA420B44FAD194F8582052
:102AD000DBB29A4240F0A08094F859300A2B00F201
:102AE0009880DFE803F0190A2D390643196506A519
:102AF0007C0042F2127003B030BD236E6268A360A6
:102B0000934200F28C80616EC80707D5E06DA16921
:102B1000884203D113B1E3600020ECE7B4F85A0017
:102B200010F001007ED1934202D342F27870E2E7C6
:102B3000D21AA3663F4B236001236260A360DAE7E9
:102B40004FF0FF330020C4E90730236E102B8CBFF9
:102B5000394B3A4B2360CEE7394BE06D1B68D4E923
:102B60001812DB6803B0BDE830401847E56D284611
:102B7000FEF7B2FA002858D0606E04F11801A84799
:102B800001280AD1D4E901329342CED99B1A63605D
:102B9000284BA2662360A060BEE70228ABD1294C77
:102BA000702200212046FDF719FE274B2360B3E772
:102BB000B4F85A3099073BD4DA0707D513F4706F8D
:102BC00036D103B0BDE83040FEF778BB1C4B1B6824
:102BD000D4E917015B6903B0BDE830401847B4F889
:102BE0005A30C3F3032213F0010F14BF0823042348
:102BF000042A01931CD1E16DFFF72AFD1048019BC7
:102C000002692030556B04F16002A847FFF712FDFE
:102C100071E742F27B706EE742F279706BE742F245
:102C2000767068E742F27C7065E742F27F7062E797
:102C3000042060E7AD2A0000F1270000752800009D
:102C40006804FF1FAC09FF1F850D0000034BDB6804
:102C5000D868142200210C30FDF7C0BD6804FF1FA6
:102C60001FB50446FFF7F2FF0B4A6068D368A168FE
:102C7000DB680391586110201877E068587707489F
:102C800019610023CDE90103D069426901A9946863
:102C90000C22A04704B010BD6804FF1FB001000261
:102CA0001FB50446FFF7D2FF0A4A6068D368A168DF
:102CB000DB680391586103201877074819610023E6
:102CC000CDE90103D069426901A994680C22A047AB
:102CD00004B010BD6804FF1FA301000210B5044634
:102CE000FFF7B4FF074BA268DB68DB681A61626814
:102CF0005A6104221A7721780020BDE81040FDF7C0
:102D0000C9BF00BF6804FF1F10B50446FFF79EFF50
:102D1000094B6268DB68DB681A6108221A77217840
:102D2000064C0020FDF7B6FF702200212046FDF77B
:102D300055FD034B236010BD6804FF1FAC09FF1F46
:102D4000850D00001046244A127870B5002A3DD047
:102D500020283DD87BB1012B3CD10426FFF778FC1D
:102D60001E4B5D7B1C4645B100225A73FFF762FC87
:102D700042F2127070BD0326F0E7FFF75BFC84F8A7
:102D8000206084F8215084F8220084F8235029B16F
:102D900020B1024604F12400FDF786FC94F8466059
:102DA000012E13D1A5684DB16B7C3BB90C4A286844
:102DB00024238121FEF793FD00B96E7472B6A369D6
:102DC0000133A36162B6A369002BFCD10020D1E7D7
:102DD0000420CFE70120CDE70909FF1FF007FF1FFF
:102DE0001008FF1F2DE97041174C8BB000260546D7
:102DF000CDE90066FFF72CFC23694168D3F83880E1
:102E000083686A4604F12000C047FFF713FC0F4BAC
:102E1000AA68CDE90230A8B993080233694605A82B
:102E20008DF80B300492FDF73FFCE0699DF80B2014
:102E3000436901329C689200002302A9A0470BB0AD
:102E4000BDE870810496F0E76804FF1FAF00000240
:102E500038B5B0B1C5690C496C680C222046FDF745
:102E600023FC0A4B0A4901341C60AC68142220463A
:102E7000FDF71AFC074B01341C6002232B60002075
:102E800038BD0420FCE700BF3C4A0000C407FF1F18
:102E9000284A0000C007FF1F37B50B4611468207BE
:102EA00004461AD0B0F1005F17D25A1E0244B2F1A4
:102EB000005F12D3C0F1005503F160432A461C4461
:102EC0000191FDF7F1FB0199224629444FF0005092
:102ED000FDF7EAFB002003B030BD1A462046F7E7B5
:102EE00008B513460A4601461846FDF7DDFB0020EB
:102EF00008BD00002DE9704F534CA3681B698AB0D0
:102F0000D3F8308081460D469246FEF7A1F9236939
:102F10004A4222F003025E6C014608AB524204F1C1
:102F20002000B0470646002855D19DF82030002BE0
:102F300039D1B8F1000318BF01230593FEF780F9DA
:102F400025F003084FF0FF3315F00305CDE90833F2
:102F500005D02A460AEB080108A8FDF7A5FBFEF7F5
:102F600077F9B8F1000F3CD1002D4AD1FEF768F98E
:102F7000059B002B31D0FEF76BF9B8F1000F4AD159
:102F80004DB306AA2369029207AA0192A2682F48AC
:102F9000126992F8502000929C6A082208AB09EB53
:102FA0000801A0474AE0DFF8A88098F8003063B92C
:102FB000A3681A69236992F850101B6A04F1200073
:102FC000984738B9012388F80030FEF739F9002313
:102FD0000593B5E76C26FEF733F930460AB0BDE835
:102FE000708F23691948D3F814B0524643464946B6
:102FF000D8470028B8D0FEF723F90028B8D00646F5
:10300000EBE723691148D3F814B008AA042309EBAD
:103010000801D847EFE706AA2369029207AA01929E
:10302000A2680A48126992F850200092D3F828B09A
:10303000424653464946D8470028A1D0FEF700F93A
:10304000002818BF0646C8E76804FF1F8804FF1F52
:10305000F808FF1F70B588B0CDE90022CDE9022243
:10306000CDE90422CDE9062205460C4614B92046D6
:1030700008B070BD1F2C94BF264620266A463146F4
:103080002846FFF737FF0028F2D13544A41BEDE7AF
:103090002DE97343054611489046426B036952423D
:1030A0000E4602EA05014C1BA41B2240D3F84490B3
:1030B00052420DF107032030C847044638B99DF845
:1030C000073043B9324629464046FDF7EDFA20461F
:1030D00002B0BDE870836C24F9E700BF6804FF1FED
:1030E000164B9B6870B534214CF2C0301C69144EED
:1030F000FDF7A6FD04F168053422A0B1FF212846A2
:10310000FDF76CFB102384F8783041F28833A4F883
:103110007A304FF47F43A4F88430FE2384F886305D
:10312000A666002070BD4CF2C0312846FDF7BCFAFF
:10313000A36EB342E6D03422E0E700BF6804FF1F6D
:103140006B636667013970B51446082931D8DFE82A
:1031500001F0071B294E4E324E300500052070BD90
:103160005368013B03330DD8244B1B689A69002A2E
:1031700008DD93F84620012A04D172B69A69013A13
:103180009A6162B60020EAE75268531E0333F9D809
:103190001A4B1B68DA6101221A7372B65A69013A36
:1031A0005A61EEE7154B1868242200212030FDF704
:1031B00015FB0120D3E7114D92782E6832B9E378E0
:1031C00023B92078012801D17073C8E762682146CD
:1031D00006F12000FDF768FA2B686268DA610120C9
:1031E000187372B65A69013A5A6162B6B7E7034B6F
:1031F0001B6800225A619A61DBE700BFEC07FF1FE2
:103200002DE970414B6889B04FF0000C5D1CCDE991
:1032100002CC0646144600F0C480002A00F0C180AB
:1032200091F808E002F10805BEF1000F00F081807E
:10323000082B40F0B6800B68002B00F0B2805A8853
:10324000B3F806E062819A88A281A4F80EE05A7869
:1032500062721B78237213F0600F15D1524B53F832
:103260002280B8F1000F62D002AB03AA29462046A3
:10327000C04702AB019303AB0093002302462946EB
:103280003046FEF735FC1EE003F02002BEF1000FD1
:103290002CD019062AD4CAB1012104AACDF814C031
:1032A0008DF81C100495CDF818E0FFF72DF9069B5A
:1032B0000293059B03930028DBD10146E389039A1F
:1032C0003046FEF70CFB09B0BDE8708158062ED5DC
:1032D0000023059304AA01230F2130468DF81C30EA
:1032E0000495CDF818E0FFF751F9E0E782B100232B
:1032F000012104AA304605938DF81C100495CDF8E1
:1033000018E0FFF701F9069B0293059B0393B0E7D2
:1033100059060CD50592012304AA0F2130468DF8D9
:103320001C300495CDF818E0FFF730F9EBE70520E5
:103330009FE790F88E20032A09D1627A1A4B29461A
:1033400053F82260204602AB03AAB047BBE743B361
:10335000E28932B3227A94F90840002C21DB12F082
:1033600020040FD00A680592012104AA8DF81CE000
:1033700004950693FFF7C8F802AB019303AB0093E3
:1033800001237BE752060AD50A6805920F2104AA99
:103390008DF81C4004950693FFF7F8F8ECE705203C
:1033A000EAE705208FE700BFF449000070B5044646
:1033B00000681D4690F88E30164653B98B8824F865
:1033C000103F09212246FEF7F9F9022334602B60F1
:1033D00070BD0520FCE738B50446006890F88E30D3
:1033E0008BB98A888B78254643EA022325F8103F5B
:1033F00004212A46FFF788F820682A460821BDE8FC
:103400003840FFF7C3B8052038BD10B4046894F8FD
:103410008E406CB901241C6000F1100313600A791E
:1034200002825DF8044B00681A461221FFF7AEB81D
:1034300005205DF8044B704713B50446006890F80A
:103440008E30012B14D8002380F88E304B8813B9AE
:10345000012380F88E308A1C03210192FFF754F873
:10346000019A2068072102B0BDE81040FFF78EB82E
:10347000052002B010BD016891F88E10012909D80D
:103480000121196000F11003136000681A46112130
:10349000FFF77CB8052070477FB50068154690F8A7
:1034A0008E201C464B88022A4FEA13263CD8CA8835
:1034B0000292012E09D101AA0921FFF767F8019BA9
:1034C0002B60029B236004B070BD022EF2B2DBB20F
:1034D00004D18DF80C3001AA0A21EEE7032A07D1A6
:1034E0008DF80E308B88ADF80C3001AA0B21E4E783
:1034F000212A05D18B888DF80C3001AA0C21DCE73C
:10350000222A05D18B888DF80C3001AA0D21D4E731
:10351000232A07D18DF80C308B888DF80D3001AA45
:103520000E21CAE70520CAE70520CCE710B50446FE
:10353000006890F88E30032B0AD0013B012B13D882
:103540004B8880F88C30032380F88E30002010BD2B
:1035500000F18C020821FEF731F90028F7D1236829
:10356000012283F88E20F2E70520F0E737B5054603
:10357000006800238DF8063090F88E30012B0C4641
:1035800002D9052003B030BD4B78032B04BF0123C3
:103590008DF806300B7813F01F0308D14B88012BF0
:1035A000EFD10DF106021021FEF7F0FFEAE7022B42
:1035B000E7D14B88002BE4D18B881A0703F00F0169
:1035C00007D141EAD3119DF80630C9B253B1FEF7D5
:1035D000FFF89DF806302868221D6BB10521FEF723
:1035E00093FFCFE70B078DF80710F2D40DF1070218
:1035F0000521FEF7E3F8ECE70621F0E72DE9734338
:1036000004460068984690F88E30012B154636D84F
:1036100091F8009019F01F0904F110060ED13246FE
:103620000621FEF7CBF8238A03F00303238202234B
:10363000C8F800302E6002B0BDE87083B9F1010F08
:1036400006D10021022321820846C8F80030F1E7A4
:10365000B9F1020F11D18B888DF8043001AA002333
:103660000721ADF80630FEF7A9F8BDF8063003F0E3
:1036700003032382C8F80090DCE70520DAE7052081
:10368000D9E710B40C460123114622465DF8044BDD
:10369000FCF778BFFFF7F5BF2DE9704F06460D46E2
:1036A00090461C46002B3CD00423FDF73AFAB0BBF1
:1036B000D6F814E0DFF87090DFF870A001EB080294
:1036C000844688464FF0010B904510D2B8FBFEF3BC
:1036D0001F2B09D8DAF800100BFA03F38B4318BF3D
:1036E0000CF1010CF044EFE7B169994211D8BCF13B
:1036F000000F12D0CEF1000152420A4029400A4484
:103700005242B2FBFEF2944534BF022301232370E0
:1037100005E0D9F80010203BDEE784F800C0BDE8E2
:10372000708F0420FBE700BF180002401C0002401D
:1037300038B50D4D70232B70FDF7E6F9044668B9D6
:103740000A4B28461B6898472A789106D3B207D4BB
:10375000DA0607D413F0010F18BF6924204638BDDC
:103760006724FBE76824F9E700000240C407FF1F55
:103770002DE9704F824688B00C4615461E46002B38
:103780003DD06A46FDF7E5F92146079B2A4650469B
:10379000FDF7C7F9044660B99DF84080DDF8009058
:1037A000DFF868B0174A18494FEA086868F07F48A0
:1037B0001DB9204608B0BDE8708F29F07F4040F069
:1037C0000070CBF80000C2F80080306808605046F6
:1037D000FFF7AEFF0C490B4A50B1119B0BB1C3F878
:1037E0000090129B13B1129A002313600446E0E785
:1037F000079820F0030C2D1A66448144D8E704246E
:10380000D7E700BF080002400C000240040002405D
:103810002DE9704F8AB081460D46144602AA98469B
:10382000FDF797F9079B224629464846FDF779F9A7
:10383000064690B902AA4846FDF78BF9029D049A04
:103840006B4251420B40DD42C3F1000B4FEA0828A6
:1038500008BFA2EB030B13491CB930460AB0BDE800
:10386000708FABEB050AA2450798019228BFA246CC
:103870000D4ABAFBF0F025F07F4C48EA004040F0DA
:10388000FF004CF08073136008604846FFF750FF5C
:1038900028B9019AA4EB0A0455449344DBE7064691
:1038A000DBE700BF080002400400024040B1054BC6
:1038B00043EA014103F5803305331960FFF738BF50
:1038C00004207047FFFF004098B191B10B4B9B78EB
:1038D00003F00303022B0ED0094B6FF03A421A603B
:1038E0000B68084A1BBA13604B681BBA5360FFF79A
:1038F0001FBF042070470020704700BF0000024037
:10390000040002400800024070B50C4615461E46F1
:10391000B0B1AAB10B4B0A0402F47F0213430A4A66
:103920001360FFF705FF50B9084B103C1B682B6074
:10393000032C04D8082E02D1054B1B686B6070BDA8
:103940000420FCE7FFFF00410400024008000240A1
:103950000C0002402DE9704F88B089469DF8406008
:1039600014469846824600283CD0002A3AD06A463F
:10397000FDF7EFF8069A334641464846FDF708F949
:10398000054648B93606194ADFF868B0184B66F0A4
:103990007F46B8F1000F03D1284608B0BDE8708F0C
:1039A00029F07F4141F0407111600699042914D13A
:1039B0001E605046FFF7BCFEB0B9DBF80010216076
:1039C00006990B4B094A082905BF18686060043442
:1039D00008348944A8EB0108DBE7082908BFCBF8C5
:1039E0000060E6E70425D7E70546D5E70400024076
:1039F0000C0002400800024038B50546D8B1D2B1EB
:103A00000C040E4804F47F0420430D4C1039206050
:103A10000C4814680460032904D8082B02BF0A4B21
:103A200052681A602846FFF783FE04462846FDF7D1
:103A300053F8204638BD0424FBE700BFFFFF0043D6
:103A400004000240080002400C0002402DE9704FC3
:103A5000064688B088461D461446002A40D06A466D
:103A6000FDF777F8039B2A4641463046FDF759F8A3
:103A700058B9DDF800B0DFF870A0DFF870803DB90C
:103A80002C463046FDF728F8204608B0BDE8708F78
:103A9000A146144B59F8042B1A60039A042A13D137
:103AA0002BF07F4242F0C062C8F800203046FFF79A
:103AB0003FFE3269044602B19047002CE1D1039ADF
:103AC0004C469344AD1ADAE7082AEFD16268CAF887
:103AD00000202BF07F4204F1080942F0E062E3E7A6
:103AE0000420D2E7080002400C000240040002401B
:103AF0002DE9704F88B005460C4616466A46984632
:103B0000FDF727F8049B324621462846FDF709F8C1
:103B100038BBDDE900B90BF1FF321644B6FBF9F210
:103B200009FB126111B102FB0996013EDFF840A0CA
:103B300010E00E4B2BF07F4242F01062D0451A602D
:103B400012D12846FFF7F4FD2A69044602B19047D6
:103B50001CB9CB44B345ECD900242846FCF7BCFF84
:103B6000204608B0BDE8708F6B20FAE704000240E1
:103B70006B66656B38B5054670B1094B6FF03B421B
:103B80001A60084B994209D1FFF7D2FD0446284636
:103B9000FCF7A2FF204638BD0424FBE76B24F9E7BD
:103BA000040002406B66656B2DE9704FAB4B1B68E0
:103BB00088B0002B00F0AA801C68A36893F88020CE
:103BC00010075FFA82FB6FD593F89000082183F805
:103BD00080100609C0F3C002636842EA4605C0F3DC
:103BE000800023F4FF7304EB051C23F00103C100E4
:103BF0009CF82DC043EA461341EA021119431CF018
:103C0000400FD1F800804FEA05114DD0C8F3830969
:103C1000B9F10D0F08BF84F82301C8F30948002A41
:103C20007ED0601800F1280C836A4344836290F8C8
:103C30002D00C0F3C00A8AF0010A04EB05156AF3EF
:103C4000C300D5F824E0C0F3001A8AF0010A6AF331
:103C50000410BEEB03038CF8050005D0BCF804008B
:103C6000C0F30900804554D221448B6A06932B6A25
:103C7000059391F82D306FF3861381F82D308B8DDD
:103C8000C3F30903984551D1002E4FD194F8233145
:103C900004EBC303598A6B6A994247D920683346BB
:103CA00032468021FDF71BFE1BF0010F0FD0A268EA
:103CB000012384F8213182F880300023CDE90533D7
:103CC0001023ADF81C30206805A9FDF790FD1BF00E
:103CD000800F13D0A368802283F8802094F83D30B1
:103CE0005A0703D494F82D305B0707D5802120466E
:103CF000FEF761FA00212046FEF75DFAA36893F80B
:103D00005C2102F0FF010AB183F85C1108B0BDE844
:103D1000708F2A6A46F080012046FEF707FAC3E753
:103D2000E6B9B8F1000F19D1CDE90566A9F10D0189
:103D3000D1F1000949EB010946EAC2168DF81D9040
:103D40008DF81C60206805A9FDF751FDA26892F866
:103D5000943003F0DF0382F89430A5E704EB010E02
:103D60009EF82DC01CF0200FCCF3401010D1CCF3E6
:103D7000001C43EACC0C04EB0513DCF804A01B6A1E
:103D8000DEF828C09C44D44554D1002384F8203167
:103D90006018836A08EB030A04EB0513C0F828A037
:103DA000586A0190002E47D1B9F10D0F44D18021FE
:103DB0002046CDE90223FDF758FD94F82D1041F07F
:103DC000080184F82D1094F83D1041F0080184F8A2
:103DD0003D10DDE90223290104EB051505F1280C4E
:103DE00095F82D00C0F3001585F0010565F304106A
:103DF0008CF80500D3E908034BB1019BB3EB0A0330
:103E000005D0BCF80450C5F30905A84520D26318B5
:103E1000996ACDE9050193F82D106FF3861183F8A7
:103E20002D1083E71AF803000CF8030001339845BE
:103E3000F8D1AAE70346FAE7214491F82D00C0F330
:103E4000C00C8CF0010C6CF3C30081F82D00C2E7AC
:103E5000024631462046FEF709F925E7F007FF1F25
:103E6000704708B5FCF704FF08B5FCF701FF08B57B
:103E7000FCF7FEFE08B5FCF7FBFE0000024A1368E3
:103E800001331360704700BF9409FF1F084AD2F83E
:103E9000883043F47003C2F88830064B4CF220524D
:103EA000DA814DF62812DA814FF4E9721A807047F0
:103EB00000ED00E000200540114B4FF0FF32C3F849
:103EC0008020C3F88420C3F88820C3F88C20C3F86E
:103ED0009020C3F89420C3F89820C3F89C20C3F81E
:103EE0008021C3F88421C3F88821C3F88C21C3F84A
:103EF0009021C3F89421C3F89821C3F89C217047FE
:103F000000E100E0022838B504461ED1174D2B68A9
:103F10002BBBFCB9FEF79CFB154B1A6822F007027D
:103F20001A609C60FFF7C8FF124B41F238019C6099
:103F3000114B5A5822F478525A5041F204015A58FF
:103F400022F4E0225A5062B604E00020FCF7C4FDDF
:103F5000012CDBD1BFF36F8FBFF34F8F38BDEB6800
:103F60009B680BB1284698471835D0E72C490000CC
:103F700010E000E000ED00E000700440B0B5054640
:103F800000AF00200C46FFF7BDFF074B4FF4404247
:103F90009A6084F3088884F30988A8470020BD4606
:103FA000BDE8B040FFF7AEBF00ED00E0000000004C
:103FB0002DE93F4872B69A4B00221A6062B6994BBF
:103FC000DA78042A0DD15A78974902F09F025A7084
:103FD000FF22D878012802D18878400701D4013A1D
:103FE000F7D1924D924C41F2380204F12000AB58C7
:103FF00043F47853AB5041F20402AB5843F44033DE
:10400000AB5023695B6898478A4BE363236904F1EB
:1040100020001B6C9847A3681B68984741F2440135
:10402000854B6A581A60A3681B6993F8840093F85B
:104030007820C60702F0100240F11281002A40F0F9
:104040000F816B581B0F4FF0A0720133B2FBF3F3DB
:104050007A4A13607A4B7B4EDFF8F8A1DFF8F891CB
:1040600000226FF07F41326059609A6007221A6027
:10407000724B75491A68B1EBC20F4FEAC2032EBFEB
:104080000123724AB3FBF2F3CAF8003023681B68BD
:104090009847A3685B689847A368D3F81080D9F85D
:1040A0000050002D40F02F8108212846DAF800A0AA
:1040B000FCF7C6FD002840F035814CF204031D6872
:1040C0004FF44043D3F800902846FDF705F8002848
:1040D00000F02A81FEF73EFB002800F02581A3684E
:1040E000DFF878B11B6993F8863013F0010F4AA30B
:1040F000D3E9002313D156490978090608D4DBE92E
:104100000001994208BF904209D19BF8081031B1D3
:1041100049462846FFF732FF3FA3D3E90023B8F80A
:104120007AC04FF6FF7041F28831844508BF8C4653
:10413000DBE90001994204BF9042DBF80CC04FF468
:104140007A73AAFB03AB4FEADA03BCF57A7F43EA42
:104150004B7338BF4FF47A7CA3FB0C01CDE900010F
:10416000019B37484FEADB020CFB023301933268B4
:10417000836831688A42FAD1DB4323F07F4310061B
:1041800010EB030A4FEA122141F1000BCDE902AB1B
:10419000DDE90023134327D0294B30689B68326840
:1041A0009042F9D1020A01060298091A0491039972
:1041B00062EB01020592DDE90401DB4323F07F435A
:1041C000C018DDE9002341F10001994208BF904287
:1041D0000AD32846FCF780FF30B1FEF7BBFA18B1CE
:1041E00049462846FFF7CAFEDFF86CB0DBF800202E
:1041F000002ACDD098F87810114207D0DBF80C20B7
:10420000584612689047002840F0C3800BF1180B05
:10421000ECE700BFAFF300809A1F52949ECD043BA1
:10422000FC08FF1F00E0074000D00740007004407A
:104230006804FF1FFC06FF1F0C09FF1F6404FF1F1B
:1042400010E000E09409FF1F3F420F0040420F00C2
:1042500000F00740240AFF1F2C49000000FF002047
:1042600093F885304E49DB4303F00F03013322B14D
:104270004C4AB1FBF3F0904241D94B481A46B1FB8E
:10428000F2F585423DD8012B02D1082A3FF6E2AE75
:10429000581E0106013A01F07061120441EA0071F2
:1042A00002F470220A43414841F2440142503C4A20
:1042B0003F49B2FBF3F33F4A13600B78012B1BD04D
:1042C0003D4B5A7802F0CF0242F020025A701A7821
:1042D00002F0C30242F030021A70DA7802F09F0254
:1042E00042F02002DA701A7B02F0FC0242F0020275
:1042F0001A739A79D006FCD401230B70AAE6013B0D
:10430000B7E70132BBE798F878302B4207D0D9F8ED
:104310001420D9F80C3091695B684846984709F138
:104320001809BCE6A946CFE61BA3D3E90023CDE9D3
:10433000002300220023CDE9022329E798F8781012
:10434000114205D0AB4503D0EA68284692689047F1
:1043500018352A68002AF1D1DBF81020C4F81CB007
:104360001AB112680AB158469047E069436913B11F
:104370001B6803B19847E3681B689847E569E368E1
:104380005B689847EB68DB68002BF8D028469847B5
:10439000F5E70A4DDDE700BF000E2707000000002B
:1043A000006CDC02FF2C310140787D01007004407C
:1043B0000809FF1F6404FF1F004006402C4900004D
:1043C00038B504464068FCF787FE50B101206568A7
:1043D000FFF798FDA068A8472178BDE83840FCF7B2
:1043E00059BC0420F8E700002DE9F843C4681B4ECF
:1043F000D0E9019800AF0546346054B1184B5B68B2
:104400001A69944225D35B6901339C428CBF042412
:1044100000244846FCF760FE002808BF04242978E1
:104420002046FCF737FCB4B90E4D2046C5F8009085
:10443000FFF768FD33681BB183F3088883F30988AD
:104440002B68404698470020BD46BDE8F843FFF77B
:1044500059BD0424DDE7BDE8F88300BF0009FF1F54
:104460006804FF1F0409FF1F2DE9F041294CE36890
:10447000DB680022C3E904221B7F042B00AF064641
:1044800004D123681B699847054606B13546E368A1
:10449000DB682846197FFCF7FDFB42F212739D4250
:1044A00036D1E368DB681B7F082B31D123681B6999
:1044B0009847064660BB184D95F85930042B20D11B
:1044C000D5F85C804046FCF707FE08B33046FFF79E
:1044D00019FDB5F85A309B070DD52B6E5BB162689C
:1044E00011698B4214D352690132934210D883F37D
:1044F000088883F30988686E4346BD46BDE8F041ED
:104500001847082B04D10220FFF7FCFCFCF7B0FB96
:10451000BDE8F0816804FF1FAC09FF1F2DE9704F53
:10452000324DEB68DB681C698AB006463CB9047002
:104530002046FFF799FF00200AB0BDE8708FD968C8
:10454000D3F814800122202CA146027028BF4FF01E
:104550002009A1B14A4602A8FCF7A6F8C246E869BC
:104560004369A4EB0904D3F808804A46012302A951
:10457000C047002C32D1FFF777FF3470DBE71A7F9A
:10458000032A08EB090A16D12B6840465B6802AA89
:10459000494698478046B8F1000FE0D0E869436982
:1045A00000229C6802A90123A0474046FFF75CFF58
:1045B00000233370BFE7102AD1D1597FFEF748F8A6
:1045C0002B690091D3F83CB041464B4602AA05F155
:1045D0002000D8478046FEF72DF8DCE70028E5D11B
:1045E000EB68DB68C3E9044AA5E700BF6804FF1F66
:1045F0002DE97F4F534DEB68DA68D2F810800646FC
:10460000A946B8F1000F08D180F800804046FFF7B6
:104610002BFF002004B0BDE8708F01230370E86910
:104620005269009242694FF0000A5468CDF808A020
:1046300002AA03A9A047044648B1E8694369DB68B8
:1046400098472046FFF710FF86F800A0E1E7029D9B
:104650002DB942F21270FFF707FF3570D9E7D9F88C
:104660000C300399DB681A7F454528BF4546082A68
:10467000AA4602953BD19D61334A344DD9608346A9
:10468000314B1B69C3F110035B445B454FD0DA45E6
:1046900005D1029BB8EB030536D12046DBE7106954
:1046A00000F1010CC2F810C011F80BC002F800C0F4
:1046B0000BF1010BE9E72B69984208D00133019116
:1046C0002B612B682846984701991F4A28B9DA457B
:1046D000D6D1DEE7013BAB66F9E742F27D73984243
:1046E000D7D042F27473984218BF0446D1E7D9F884
:1046F000003000989B680A4629469847009A029B1A
:104700001A4404460092C4E754B1D9F81C00436926
:10471000DB6898472046FFF7A7FE0023337078E751
:10472000D9F80C30009ADB681D615A6171E7E868BE
:104730006A62002313610028BDD1AB6E002BC9D182
:104740000191BEE76804FF1F9809FF1FAC09FF1F16
:1047500008B501780020FCF79DFA054BD86943693C
:104760001B6998470220FFF7CDFBFCF781FA00BFD9
:104770006804FF1F114B124A12499A60124B99426A
:1047800009D1124A124B00219B1A73B91149124ADE
:10479000521A72B97047114AD21A002AF1D013F88E
:1047A000010B01F8010B013AF7E702F8011B013B8D
:1047B000EBE701F8013B013AEBE700BF00ED00E059
:1047C000000000000004FF1F704A00000807FF1FE0
:1047D0002C0AFF1F000CFF1F2010FF1F784D000048
:1047E000000000007913000000000000910D00009F
:1047F00000000000A12C00001D450000DD2C000081
:10480000F1450000DD0C000000000000BD0C0000C0
:10481000000000001D0D000000000000092D000038
:10482000F1450000E943000000000000C143000022
:10483000000000005147000000000000FD0C0000D7
:1048400000000000000000000000000061260000E1
:1048500000000000E52D000000000000612C0000B9
:104860001D450000000000000000000000000000E6
:104870000000000000000000DD130000D313000062
:104880008336000000000000000000000001024626
:10489000490F0000753B000000000000F13A0000E5
:1048A0004D3A0000150F0000C9380000AD38000077
:1048B0001138000071370000C90E00000000000030
:1048C000F93900000939000055390000512E000067
:1048D0009936000000000000000000000000000009
:1048E000000000000912000091300000F52E0000C9
:1048F0005530000000000000611200002D10000083
:10490000E1110000911100001D11000005110000CF
:1049100055110000AD0F0000E12E0000992E00009F
:1049200095360000000000000000000010000000AC
:1049300000000000000000007049000000000000BE
:10494000804900000000000000000000000000009E
:10495000000000000000000000000000E130000046
:10496000111500003D140000ED1300004008FF1F6A
:104970001D0C0000D5280000111F00000D0C0000C8
:10498000F50B000029190000452D0000E10B000087
:10499000DD0B0000D90B0000000000000800100033
:1049A000180020003000400060008000C0000001BE
:1049B000800100020003000400060000B52400008E
:1049C000B91B0000F51C0000010000000000000001
:1049D000000000000000000000000000452400006E
:1049E000FD1600002D2100006D2000006B18000056
:1049F00049220000FD3500006D3500000000000078
:104A00006D350000000000002D35000099340000D5
:104A10000000000077340000393400000B3400003F
:104A2000D7330000AD3300000168F02212040A43BE
:104A30000260BFF36F8FBFF34F8F7047802101700B
:104A400002780A42FCD07047F8B500BFF8BC08BC39
:104A50009E467047F8B500BFF8BC08BC9E4670473C
:084A600038BAFF7F01000000DD
:044A680079040000CD
:044A6C0051040000F1
:104A70000404FF1F00000000000000000000000010
:104A80000000000000000000000000000000000026
:104A90000000000000000000000000000000000016
:104AA0000000000000000000000000000000000006
:104AB00000000000000000000000000000000000F6
:104AC00000000000000000000000000000000000E6
:104AD0000000000000004001FC480000B005FF1F7E
:104AE0005C490000BC04FF1F8C4800002C490000FA
:104AF00000000000000000000000000000000000B6
:104B000000000000000000000000000000000000A5
:104B10000000000000000000000000000000000095
:104B2000000000000000000000000000B90E0000BE
:104B3000B10D0000E4470000C807FF1F4531000029
:104B4000000000002005FF1FCC04FF1FC519000056
:104B50000100000009022900010100C0320904001F
:104B6000000203000003092100010001224C00079C
:104B70000581034000010705020340000112010006
:104B80000200000040501D236102000102000100EC
:104B90004005FF1F010100008103400002034000A7
:104BA00000000000020000002805FF1F00000000B8
:104BB000010000004805FF1F030000003005FF1F33
:104BC000010000000600FF0901A10185011901296A
:104BD00001150026FF007508952391028502190131
:104BE0002901150026FF00750895239102850319F8
:104BF000012901150026FF0075089523810285040F
:104C000019012901150026FF00750895238102C0AE
:104C10004406FF1F040000003806FF1F01000000CB
:104C200000000000FFFF070001000000E448000052
:104C30000080FF1FFFFF002001000000144900005A
:104C400000000040FFFF0740000000007448000023
:104C500000F00F40FFFF0F4000000000744800000C
:104C6000000000E0FFFF0FE00000000074480000BB
:104C70000000000000000000000000000000000034
:104C8000040000003A0000002A0000002E0000008E
:104C9000220000004406FF1F4806FF1F8206FF1F78
:104CA000AC06FF1FDA06FF1F2406FF1F1006FF1FBA
:104CB00009040000040309043A0355006C00740061
:104CC00069006D006100740065002000470061000C
:104CD000640067006500740020004C006100620001
:104CE0006F007200610074006F007200690065005F
:104CF00073002A03550048004B00200036003000A6
:104D0000200076003200200042006F006F00740027
:104D10006C006F0061006400650072002E034D009E
:104D2000430055002000480049004400200047008F
:104D300045004E0045005200490043002000440059
:104D4000450056004900430045002203420041004F
:104D50004400200053005400520049004E00470018
:104D60000000000000000000000000000000000043
:084D70005009FF1F1009FF1F8D
:10540000000000000000000000000000000000009C
:10541000000000000000000000000000000000008C
:10542000000000000000000000000000000000007C
:10543000000000000000000000000000000000006C
:0400000300000509EB
:00000001FF
