:10000000201EFF1FD904000045050000F334000046
:10001000ED340000E7340000E1340000000000008F
:100020000000000000000000000000004505000086
:10003000450500000000000045050000D536000021
:100040004505000045050000450500004505000088
:100050004505000045050000450500004505000078
:100060004505000045050000450500004505000068
:100070004505000045050000450500004505000058
:100080004505000045050000450500004505000048
:100090004505000045050000450500004505000038
:1000A0004505000045050000450500004505000028
:1000B0004505000045050000450500004505000018
:1000C0004505000045050000450500004505000008
:1000D00045050000450500004505000045050000F8
:1000E00045050000450500004505000045050000E8
:1000F00045050000450500004505000045050000D8
:1001000045050000450500004505000045050000C7
:1001100045050000A53C0000450500004505000020
:1001200045050000450500004505000045050000A7
:100130004505000045050000450500004505000097
:100140004505000045050000450500004505000087
:100150004505000045050000450500004505000077
:100400000403020108070605F8FFFFFF95F9FFFF47
:1004100010B5054C237833B9044B13B10448AFF33E
:1004200000800123237010BDA406FF1F0000000000
:100430004446000008B5064B1BB106480649AFF319
:1004400000800648036813B1054B03B1984708BD07
:100450000000000044460000A806FF1FA006FF1F82
:1004600000000000154B002B08BF134B9D46A3F561
:10047000803A00218B460F461348144A121A03F0A3
:1004800096FF0F4B002B00D098470E4B002B00D04F
:1004900098470020002104000D000D48002802D0DC
:1004A0000C48AFF3008003F053FF2000290003F055
:1004B0004FFD03F04BFD00BF00000800201EFF1F92
:1004C0000000000000000000A406FF1F4009FF1FFD
:1004D000000000000000000072B60E480E4988605F
:1004E0000E4A0E4B0D4C0D4D0C4E0C4FB846B946F6
:1004F000BA46BB46BC460A4885460A4880470A4871
:1005000080470A48804762B604480449084A904731
:10051000FFF7FEBF0000000000ED00E0000000005B
:10052000201EFF1FE5360000293C000011370000A7
:10053000513F000072B603F0D5F803F075FB62B6C8
:10054000FFF790FFFFF7FEBF002A01D1012070479F
:10055000F0B41F46034603242340002B09D0042493
:10056000E31A017001300824E141013A26D0013B31
:10057000F7D1042A1ADB13D0002F11D00C460D46F8
:100580000E46102A02DB72C0103AFAE70C2A02DB90
:1005900032C00C3AFAE7082A02DB12C0083AFAE73E
:1005A000042A03DB01600430043AF9E7002A05D08D
:1005B000017001300824E141013AF7D1F0BC00207C
:1005C0007047C046104A936830B51B6954689A6DED
:1005D00025680139AA420144DD6D04D0A84204D83F
:1005E000914202D30EE09542F8D11A6E24695B6EF7
:1005F000A24201D1934203D0984201D8914201D244
:10060000002030BD012030BDCC05FF1F054B10B5CB
:100610005C68E06820B1036803B198471034F8E7DC
:1006200010BD00BFCC05FF1F10B5044C206820B1E1
:10063000006910B180470023236010BDC006FF1F72
:1006400073B50C4C6568236904F120062A46DB6A01
:10065000304604219847236901AADB6A304601210C
:1006600098472A68019B1344013B00206B6002B04D
:1006700070BD00BFCC05FF1F024B1B6883F31088C1
:10068000704700BFC806FF1FEFF31082014B1A60CE
:1006900072B67047C806FF1FF8B5134C07460E46E2
:1006A000FFF7F2FF236904F120001D690F4B394663
:1006B0003246A8470546FFF7DFFF9DB9A3681B69CF
:1006C0001B6B7BB1FFF7E0FFA268216913694D6ADC
:1006D00093F8503004F1200039463246A8470546C9
:1006E000FFF7CAFF2846F8BDCC05FF1F6B66656B98
:1006F000F0B521B3C40701D4012905D112F8013B9B
:1007000000F8013B0139F4E7830701D4032904D839
:1007100032F8023B20F8023B02398C08E9D0A400F1
:1007200027180346151ABB4205EB030603D2ED5802
:1007300043F8045BF6E7091B32461846D9E7F0BDDB
:1007400008B5FFF7D5FF002008BD08B503461046E1
:100750001A46FFF7CDFF002008BD0000124B0138FC
:100760009B68C2B2172A10B51C6916D8012303FA78
:1007700002F20E4B13406BB912F4001005D1930531
:100780000BD501290CD8216310BD022908D8216599
:10079000184610BD42F63D0010BD42F63C0010BDAB
:1007A00042F63E0010BD00BFCC05FF1FFFEC8100EC
:1007B00073B51E462F4B15469A68013811691728E4
:1007C00052D8DFE800F04A0C0E1012141A1C511E09
:1007D00020275116182A303E4143454751490C31D4
:1007E0003BE0103139E0143137E0183135E0203189
:1007F00033E0243131E028312FE034312DE02C3149
:100800002BE0303129E0D86943695B6998471A4980
:10081000086022E05831102420E041F22403174AF6
:100820001549D3580BE01B6915489B690DF1070169
:1008300098479DF807301049003318BF01230B601B
:100840000BE038310C2409E0443106E0483104E083
:100850004C3102E0503100E00831042406B134602C
:100860002DB12960002003E042F63C0000E028465C
:1008700002B070BDCC05FF1FC406FF1F007004400E
:10088000EC05FF1F436A09495A898282DA68023AF5
:1008900042605A688A4206D11B7A012B03D8044B66
:1008A00003600020704742F27570704753544D50FA
:1008B00075340000014B036000207047850800007C
:1008C000C0B18368FF2283F88020826892F8843068
:1008D000002382F88430826882F89830826882F837
:1008E0009430826892F8001141F0C00182F8001142
:1008F000184670470320704730B58368FF2283F89D
:100900008820836893F8942042F0020283F89420B0
:100910008368002283F89820416821F4FF71540114
:1009200021F00101214341F0080500230B602B60F9
:1009300041F0100541F018012B600B60510141F0AE
:10094000100104440144E362CB6202F13004816887
:100950000132082A01F82430DED1826880F8203183
:1009600092F8941001F0FD0182F894108268FF2142
:1009700082F88C108268892182F8841080F82131F5
:10098000836893F8942002F0DF0283F8942030BD4E
:1009900010B510460C464AB10023537453683BB15E
:1009A0001B682BB101212246984710BD032010BDC2
:1009B000012010BD10B510460C464AB100239374B7
:1009C00053683BB11B682BB102212246984710BDEA
:1009D000032010BD012010BD2DE9F04F534DAB6831
:1009E0001B6989B08946804692461E6BFFF74CFE14
:1009F0002B69C9F1000222F003025C6C05F12000B2
:100A00004146524206ABA04790B99DF818408CB1C0
:100A1000474F3B7883B9AA682B6912691B6A92F821
:100A2000501005F12000984740B901233B7003E0C6
:100A3000074604E0274605E0074603E06C27FFF77A
:100A40001BFE6EE0FFF718FE2CB916F1000B18BF65
:100A50004FF0010B01E04FF0000B29F003044FF0C1
:100A6000FF33B9EB04090693079305D006A80AEBF8
:100A700004014A4603F092FCFFF706FE24B9B9F1DF
:100A8000000F0BD14E4612E02B692A485E694146A1
:100A900052462346B047064648B9F0E72B69254839
:100AA0005E6904EB080106AA0423B0470646FFF777
:100AB000E3FD002E34D1BBF1000F32D0FFF7E4FD8F
:100AC000A4B9B9F1000F25D0AA682B691269194899
:100AD00092F85020009204AA019205AA02929D6AFF
:100AE00004EB0801082206ABA84712E0AA682B69AC
:100AF0001269104892F85020009204AA019205AAA7
:100B00000292D3F828C0414622465346E0470028C7
:100B1000D7D00646FFF7B0FD002E18BF374600E0DD
:100B20003746384609B0BDE8F08F00BFCC05FF1F3F
:100B3000CC06FF1FEC05FF1F70B5002388B00546EB
:100B40000C464DF803200433202BFAD164B1202C3D
:100B500034BF26462026284631466A46FFF73CFF2A
:100B600018B93544A41BF1E7204608B070BD0B4608
:100B700011461A460123FFF7E7BC000010B512B179
:100B8000104B5B681360C9B1C2B11368B3B11C6884
:100B900024B95C6824B9DC6814B90FE0A0420BD317
:100BA0005C68A04208D80138084442F2D873A042D9
:100BB0008CBF1846002010BD1033E3E742F2D87016
:100BC00010BD00BFCC05FF1F73B5054616460C4689
:100BD00081B1FFF7F7FC78B92846214601AAFFF753
:100BE000CDFF58B9019BDB682846DB6821463246B9
:100BF000984703E0084601E042F2D87002B070BDA9
:100C000073B501AA05460C46FFF7B8FF60B9019B12
:100C1000DB685E6966B128462146FFF7D3FC48B918
:100C200028462146B04707E0002C08BF002003E01B
:100C3000662001E042F2D87002B070BDF7B50646FA
:100C400017460D46C1B1FFF7BDFCB8B9304629467D
:100C500001AAFFF793FF044690B9019BDB68304679
:100C60009B6829463A469847064B18B9019AD268BC
:100C70001A6005E01C6003E0084601E042F2D8700B
:100C800003B0F0BDC006FF1F73B5064615460C46FF
:100C900059B101AAFFF772FF40B9019BDB683046EA
:100CA0005B6821462A46984700E0084602B070BDBE
:100CB000F8B5294B9A685E6814693068A16DA5691A
:100CC00081421F4604D1E26D531A5A425A4100E054
:100CD0000022BAB98142C5F100050CD8E36D7168F4
:100CE0005B421D406842884233D201312944BDE84D
:100CF000F840FFF7D1BC2940F0D0FFF7CDFC002829
:100D0000ECD0F8BDFFF7C0FC134C3B6913499B685E
:100D100004F1200098470546FFF7AEFCA5B9A3688B
:100D20001B691B6B93B1FFF7AFFCA26823691269C3
:100D30001B6A92F8501004F1200098470446FFF710
:100D40009BFC1CB12046F8BD2846F8BD044B01228F
:100D50001A700020F8BD00BFCC05FF1F6B66656BE5
:100D6000CC06FF1F08B528B143682BB15B6900684A
:100D7000984708BD032008BD062008BD07B58DF8BB
:100D8000071001F00F01072905D804210DF1070212
:100D9000FFF7E8FF00E0042003B05DF804FB00006B
:100DA00073B54268037B926851799942044601D237
:100DB000012059E01268002AFAD003F10053013BE8
:100DC00002EBC30612F833500023AB42F0DA0C21D9
:100DD000594370684218415C032915D1157A0023E4
:100DE000AB4208DA190150684618405CA17B884282
:100DF00002D00133F4E70026D3786373002ED7D0F6
:100E0000A6600025012027E00133DEE700238DF8EE
:100E10000430B368154803EB850213F825308DF8CC
:100E200002305188ADF8001052788DF80320104A36
:100E3000D90918BF0246206890B103F00F03072BB1
:100E400010D841EA430300EBC3030221DA601C61BE
:100E50006A46FFF787FF013533799D42D6DB03E011
:100E60000320F8E70420F6E702B070BD9109000006
:100E7000B509000030B5044685B0002936D00028F9
:100E800034D08368002B33D00D7A102D05F00F037A
:100E900018D10B210022FFF765FF022384F88E3062
:100EA000002384F88C3023460022013DDA601A6169
:100EB00003F10803F8D1A368204601212A46984788
:100EC000284616E0072B13D8ED0945EA430300EB4B
:100ED000C304E36863B10A6801924A6802924A7ADD
:100EE0008DF80C2001A92269984702E0032000E058
:100EF000012005B030BD1FB5CB0901F00F0243EA58
:100F0000420200EB021328335C79640613D500EB30
:100F100002128DF80C10126A019200214FF0FF347A
:100F20008DF80D1002945A7961F386125A71006897
:100F300001A9FFF79FFF002004B010BD70B5044663
:100F400001F00F05CB0943EA4506FFF7D4FF303522
:100F5000A268002002F8250004EB0614A38D60F3BC
:100F60000903A38570BD38B50D4640B1446844B14E
:100F70002D064CBFA468E4680068A04738BD032074
:100F800038BD062038BD0000044B1A780AB1013A7A
:100F90001A701B7803B962B6704700BF000CFF1FC0
:100FA000034A137803B972B601331370704700BF58
:100FB000000CFF1F2DE9F041054642EA410405EB14
:100FC00004140E4698461746FFF7EAFF94F82D30B2
:100FD00043F0400384F82D306868069A20F4FF70CF
:100FE00007F0010720F0010040EA071006F00F06A5
:100FF000DBB240EA4610C3F3001340EAC303C2F376
:101000000902C3F8048094F82D30C3F30016C3F32B
:10101000C0039B0140EAC60043F0880343EA024252
:101020000260FFF7B1FFAB6893F8942002F0DF0293
:1010300083F894200020BDE8F08137B590F82D505A
:10104000C5F30013002100EBC30345F020050C336A
:10105000082461F3C30503628162446280F82D5065
:101060000A460094FFF7A6FF03B030BD2DE9F34117
:1010700001F00F0500EB4511044691F82D00C0F377
:1010800080106F0010B988620A624B623F01E0195C
:1010900000F1280190F82D6046F0200680F82D60C0
:1010A000868DC6F30906B34238BF1E46836A1344D1
:1010B000E2698AB194F8200170B9402E0CD843EA55
:1010C000060C1CF0030F07D04B7960F345134B71EE
:1010D000012384F82031134694F8212132B9009677
:1010E00020462946FFF766FF804601E04FF00108E1
:1010F00086B97DB92744204697F82D30C3F30012F6
:1011000082F0010262F3041365F3861387F82D3031
:10111000FFF793FF404602B0BDE8F0812DE9F341AF
:1011200001F00F054FEA450C4CF0010C4FEA0C168C
:101130000446304490F82D70C7F3801747B9026217
:1011400090F82D20876242F02002436280F82D2023
:10115000A219978DC7F30907BB4238BF1F4694F801
:1011600021316BB904EB0C132046D3F820E0936ACD
:101170000097294601227344FFF71CFF804601E0D7
:101180004FF001082644B36A23B91FB915B92046A8
:10119000FFF753FF404602B0BDE8F08170B501F0A3
:1011A0000F03C90941EA43052D01044628440E01F5
:1011B00090F82D2002F0FB026FF3C30280F82D207F
:1011C000626822F4FF7246EA431622F001023243BB
:1011D00028301668760706D58088C0F30900000419
:1011E00040F00800106042F008021068400707D580
:1011F0002544A88DC0F30900000440F008001060E9
:10120000A26802EB830292F8C00000F0FD0082F8B1
:10121000C0001BB911B92046FFF70FFFA36893F870
:10122000942002F0DF0283F89420002070BDF8B50E
:101230000446002800F0F1800C2900F2F080DFE87D
:1012400011F00D00260036007F008600B300BA00C2
:10125000BE00CF00EE00EE00D600E800836800225A
:1012600083F8002183681A7F510703D51A7F42F063
:1012700080021A77A36893F8082142F0100283F8DD
:101280000821A36893F8942042F0010289E0836862
:101290001A7F520703D51A7F02F07F021A77A368DC
:1012A00093F8082102F0EF0283F808219DE0002A5C
:1012B00000F0B58095781688D27805F00F00012AE5
:1012C0004FEAD51545EA400301B205D140F2FF329D
:1012D000964228BF16460BE0A26802EB8102402E20
:1012E00028BF402692F8C07047F0010782F8C0700E
:1012F00004EB0313012D93F82D206FF3861283F86E
:101300002D209A8D66F309029A854FEA122202F087
:10131000F7026FF3820283F82D20A36803EB8103A9
:1013200014BF0821042193F8C0200A4383F8C02089
:1013300000285AD1002D73D12046FFF77EFE54E0DD
:10134000002A6CD01178BDE8F840FFF7F7BD002AFD
:1013500065D0117801F00F06CD0945EA4607FFF781
:10136000CAFD04EB071328335A7942F004025A717C
:1013700061689B88C2F3001021F4FF7222F0010221
:1013800042EAC00242EA4616C3F3090346EA0515DB
:101390001B0443F08C032B60A36893F8942002F0A5
:1013A000DF0283F8942020E0002A38D01178BDE8CD
:1013B000F840FFF7F3BE012092B3108015E072B33E
:1013C000117801F00F03072B29D8C90941EA43031B
:1013D00000EB031494F82D30C3F38003538004E032
:1013E000EAB18368127883F898200020F8BD0025C0
:1013F000EEB246F080012046FFF7A0FD0135204601
:101400003146FFF79BFD082DF2D12046FFF774FA15
:10141000EBE722B100201070F8BD0320F8BD0120D9
:10142000F8BD00002DE9F0410F469046054638BB57
:10143000154C164B84F8260104F594722262261D81
:10144000FF22E360012183F8802030462A46FFF71F
:10145000EEFE0F4BE068A360C3F3072280F89C20E8
:10146000C3F307421B0E80F8B02080F8B43030463A
:10147000FFF742FAC8F8006028466760BDE8F081CF
:101480000620BDE8F08100BF000CFF1F00200740D0
:10149000000AFF1F2DE9F843174CD4F86851814624
:1014A0000F46904615B10220BDE8F883134EFFF7B2
:1014B00077FD3368BBB1B27C4A4514D1C4F86831BA
:1014C000FFF762FDD4F8683193B1FF23C4F86C7163
:1014D00084F8745184F8763104F5B474C8F8004087
:1014E0002846BDE8F883FFF74FFD0420BDE8F883E8
:1014F0000320BDE8F88300BF000CFF1F7C0DFF1F19
:101500002DE9F04104460F461646002A31D0FFF778
:1015100047FD1B4B1A689442984604D1FFF734FDEF
:10152000002501241AE0FFF72FFD22E01B680C21A3
:1015300001FB02339A681279012A16D1002211495F
:10154000586801EB02123946D2F808C03246E0472B
:10155000052812D0002808BF00240135D8F804302F
:10156000197AEAB29142E1D806E0002AF5D10122C7
:10157000E5E70420BDE8F0812046BDE8F08100BF2A
:101580007C0DFF1F6C440000054B1A68012A03D82C
:1015900000221A6062B670471A68013A1A607047F2
:1015A0003C09FF1F72B6024B1A6801321A6070477D
:1015B0003C09FF1F202070470020704710B5436989
:1015C00000219C680A460B46A04710BD024B012231
:1015D0005A701A70704700BFD406FF1F064B074AA7
:1015E000187B93F84D30107000218B4208BF0846DD
:1015F000517000F001007047EC08FF1FD406FF1F78
:1016000070B5194D8AB00346AA68197A96680079B0
:1016100000246A4601AB00940194B047EB68009E39
:10162000DB688DF809401C61019B8DF80A409B081E
:10163000A7228DF808205A1CD2B28DF80B200390F7
:101640009B009C4205D002A820443159816004349B
:10165000F7E7E869436901329C6802A99200002318
:10166000A0470AB070BD00BFCC05FF1F024BDB686E
:10167000DB68002018607047CC05FF1F2DE9F041A2
:101680004E4DAB681C694B23E370502300260127A5
:10169000E3714FF002085423E37284F8028066700D
:1016A0002670A77184F805802671A772667227726A
:1016B0004EF6FF7363632B692763DB6A042104F131
:1016C000100205F1200098472B693946DB6A04F1C6
:1016D000140205F1200098472B693146DB6A04F1BA
:1016E000180205F1200098472B694146DB6A04F196
:1016F0001C0205F1200098472B690321DB6A04F1E5
:10170000200205F1200098472B690521DB6A04F1CE
:10171000440205F1200098472B690621DB6A04F199
:10172000480205F1200098472B690721DB6A04F184
:101730004C0205F120009847A369214A6969E660D7
:101740005B421A40A2651F4A62EA0303E3651E4B2F
:1017500023661E4B63668B5943B194F8782013427D
:1017600002D0E2681343E3601836F4E7184B41F205
:1017700058029A58226441F25C029B58E363154B6D
:101780006A681B68A3631369526963620132D31AE2
:10179000A362E36E013305D1236F013302D1636F7E
:1017A000013302D042F6A20301E042F6A303E36252
:1017B000012323650020BDE8F08100BFCC05FF1F99
:1017C000000000000F4900000000FF1F1F1EFF1F48
:1017D000007004406080044000B3FAB109291FD8AA
:1017E000DFE801F00507090C0E1012141618C36883
:1017F00011E043680FE043685B080CE083680AE08F
:10180000036808E0012306E0436904E0836902E01D
:10181000036A00E0436A13600020704704207047A9
:101820006A20704798B191B10A4B9B78DBB203F004
:101830000302022A02D100200870704703F0C0039F
:10184000802B0CBF012302230B7000207047042063
:10185000704700BF0000024010B528B3134A41F2A0
:101860004C034FF48074D358C3F303630F2B1BBF97
:101870000F4A32F813204FF40022920242600222F3
:1018800082604FF400620023C2600A4A036092F84B
:10189000281004FA01F1416192F82B208261036162
:1018A00003624362184610BD042010BD007004405E
:1018B000BE430000000002400F4B1B68C3F303331C
:1018C000033B082B15D80D4A52F823308BB15A1E12
:1018D0001A4214BF02210121481CB3FBF0F3084A4D
:1018E000C3F100504B43526803F10053013B1061B8
:1018F00053610020704700BF00700440E8430000BF
:10190000CC05FF1F38B5B0B1C4690C4965680C221D
:10191000284602F043FD0A4B0A4901351D60A568BF
:101920001422284602F03AFD074B01351D600223C0
:101930002360002038BD042038BD00BFDC43000018
:10194000D006FF1F0C440000E006FF1F70B51446D0
:10195000820703460E4612D0B0F1005F0FD24A1E36
:101960000244B2F1005F0AD3C0F100554E1B2A4673
:10197000214602F013FD4FF00050611901E01846B6
:101980002146324602F00AFD002070BD10B50B461C
:101990000446214610461A4602F000FD002010BD04
:1019A000F0B51C4E8BB00024054600940194FFF75F
:1019B000F9FD336969689F6BAB686A4606F12000E0
:1019C000B8470746FFF7E0FDAF238DF80830022344
:1019D000AA688DF809408DF80A408DF80B300397FE
:1019E00057B922FA03F3023305A869468DF80B3084
:1019F000049202F0D3FC00E00494F0699DF80B20FF
:101A0000436901329C6802A992000023A0470BB0F1
:101A1000F0BD00BFCC05FF1F0B4611461A4601233F
:101A2000FEF792BD10B50A46044650B1837C53B907
:101A3000006802212423FFF796FA28B90123A37432
:101A400010BD032010BD022010BD0000013938B5C3
:101A5000112900F28180DFE801F0097F7F7F7F7F1D
:101A60000E264E545B736B737F7F3A413B4B0020D5
:101A700083F84D0038BD002A6ED0384B012183F821
:101A80004D10117883F84E101478012C64D1344D28
:101A9000296881F8464088682031FFF7C3FF2B682A
:101AA00083F8474058E02D4991F84D30002B53D032
:101AB00013881C0A50D12A4ADBB281F84F301168D2
:101AC00081F8483088682031FFF7ACFF44E0002AF5
:101AD00042D0224B93F84E3013703DE0002A3BD0A9
:101AE0001388180A2DD11D4991F84F1023F0FF03D8
:101AF0000B43138038BD002A2ED01A4B13601223DB
:101B000029E04AB3107AE0B9174B1360292315E096
:101B100012B3907A154B18B9196811605B680DE023
:101B20009B68148919898C420BD103280BD908E0D2
:101B300092B1107A28B90E4B13604C23536038BD14
:101B400052B1052038BD19685B6800B251F8201009
:101B500053F8203011605360002038BDEC08FF1F9F
:101B6000D806FF1F8805FF1F0004FF1F4805FF1F41
:101B70002904FF1F67B50646084802AB05690A46F7
:101B8000002103F8011D6D6C31462030A8479DF8F7
:101B90000700003018BF012003B060BDCC05FF1F57
:101BA000164B9B6870B54CF2C03034211C69144E42
:101BB000FFF7E0FF04F1680540B928464CF2C03158
:101BC000342202F0EBFBA36EB34204D02846FF217F
:101BD000342202F0ECFB102384F8783041F2883391
:101BE000A4F87A30FF23002084F88530FE2384F89F
:101BF000840084F88630A66670BD00BFCC05FF1F48
:101C00006B63666707B5421E033201D900200AE004
:101C1000064A9042FAD0022101AAFEF7AFFF00283F
:101C2000F4D1019B187A03B05DF804FBD9040000DD
:101C3000BFF34F8F054A064BD16801F4E0610B43B7
:101C4000D360BFF34F8F00BFFDE700BF00ED00E0A2
:101C50000400FA051FB502228DF80720094A0290F8
:101C6000D06903914269A0238DF804300023946861
:101C70008DF805308DF8063001A90C22A04704B07C
:101C800010BD00BFCC05FF1F38B50446FFF78AFC26
:101C900008486168036904F10C025D6BA368203099
:101CA000A8470546FFF770FC28462178BDE8384074
:101CB000FFF7D0BFCC05FF1F10B5044605480369E8
:101CC000211DDB69203098472178BDE81040FFF7DF
:101CD000C1BF00BFCC05FF1F10B5064B1B680446F3
:101CE000043007C8DB6898472178BDE81040FFF74B
:101CF000B1BF00BFCC05FF1F10B5064B04469B6863
:101D0000A168DB68007998472178BDE81040FFF7AB
:101D1000A1BF00BFCC05FF1F10B5064B04461B68D2
:101D2000A1685B69406898472178BDE81040FFF7DB
:101D300091BF00BFCC05FF1F10B50446FEF7B8FFEA
:101D40002178BDE81040FFF785BF00002DE9F7437B
:101D5000394FF869446900268DF806603D46002C2D
:101D600066D0FB68DA681368012B4ED06468111DD9
:101D700033460832A047044620B1A0F51C53123B5D
:101D8000012B55D8E968CA689768002F50D0D2F85F
:101D9000048098F8006006F1FF395FFA89F3112B8F
:101DA00006D806F100538968013B01EBC30300E04C
:101DB00000231362F3B11B68E3B12B691F489B69D1
:101DC0000DF1070198470446B0B99DF8073033B1CB
:101DD0004FF4E75343FA09F919F0010F07D0EB6804
:101DE000DB681B6A40461B683946984709E042F2A7
:101DF000117401E042F2107420463146FFF72AFFC9
:101E0000B4B9EB680122DB6810E0136A53B15B6878
:101E100043B10DF106009847044618B1FB68DB6832
:101E20001E6005E0EB689DF80620DB681A60002460
:101E3000204603B0BDE8F083CC05FF1FEC05FF1F73
:101E4000034BDB68D86800210C30142202F0AFBAD3
:101E5000CC05FF1F1FB50446FFF7F2FF0F4AA1682C
:101E6000D368DB6819616168596103211977022021
:101E70008DF80700D069A16842690391A3238DF80A
:101E8000043001238DF80530002394688DF8063066
:101E9000029301A90C22A04704B010BDCC05FF1F7E
:101EA0001FB50446FFF7CCFF114AA068D168CB6884
:101EB00018616068586110201877C968E3684B772B
:101EC00002208DF80700D069A16842690391B02310
:101ED0008DF8043001238DF80530002394688DF8C7
:101EE0000630029301A90C22A04704B010BD00BF28
:101EF000CC05FF1F10B50446FFF7A2FF074BA268F1
:101F0000DB68DB681A6162685A6104221A772178FB
:101F10000020BDE81040FFF79DBE00BFCC05FF1FAD
:101F200070B50E4614460546B8B110460021202271
:101F300002F03DFA2B686A68F31A2360EB6863606D
:101F4000AB68B2FBF3F3A36008220423E3602261D1
:101F50006261A361E361002070BD042070BD10B513
:101F600078B1013B41EA020423420CD10368994253
:101F70000BD340681144034499428CBF6620002073
:101F800010BD042010BD652010BD662010BD0000EE
:101F90002DE9F8438146884614461E46002B36D06C
:101FA0000423FFF7DCFF98BBD9F8143008EB0402D8
:101FB0004746044697420AD2B7FBF3F51F2D02D8D5
:101FC0001449096809E0D9F818108D4202D364B9A0
:101FD000347019E010490968203D012000FA05F528
:101FE0008D4318BF24181F44E4E7594252420A4067
:101FF00008EA010802EB08014942B1FBF3F39C42F5
:1020000034BF0223012333700020BDE8F88304208D
:10201000BDE8F8831C0002401800024038B1C369D3
:102020003BB11B68022B0CBF00206D2070470420C1
:1020300070476D20704710B50446006890F88E20F8
:10204000032A0AD0013A012A12D84A8880F88C2043
:10205000032280F88E20002010BD082100F18C02A0
:10206000FEF780FE28B92368012283F88E2010BD78
:10207000052010BD2DE9FF47264F04460E46924627
:10208000FEF78EFF3B689C4204D1FEF77DFF012ED8
:1020900036D103E0FEF778FF042037E000238DF807
:1020A0000B304FF0800840238DF80C608DF80A80CB
:1020B000ADF80830FCB1DFF86090C4F81490A76167
:1020C0002046022102AAFEF74DFE054698B98DF87A
:1020D0000A00C4F80C9027612046022102AAFEF7EC
:1020E00041FE40B104AA204602F8098D0321FEF703
:1020F00039FE6561A56120460221064AFFF700FA14
:102100007B6820465B6831465246984704B0BDE87C
:10211000F08700BF7C0DFF1F9D220000016891F831
:102120008E10012909D80121196000F110031360F4
:10213000006811211A46FFF79DBF05207047F0B5D2
:1021400000684D881E4690F88E30022B85B01746E9
:1021500036D82C0ACB880293012C01D1092125E025
:10216000022CEDB203D18DF80C500A211EE0032C95
:1021700006D18B888DF80E50ADF80C300B2115E090
:10218000212C04D18B888DF80C300C210EE0222CF0
:1021900004D18B888DF80C300D2107E0232C09D158
:1021A0008B888DF80C508DF80D300E2101AAFFF7A9
:1021B00061FF00E00520019B3B60029B336000E073
:1021C000052005B0F0BD38B5036893F88E20012ACC
:1021D000044615D8002283F88E204B881BB903686B
:1021E000012283F88E208D1C2A4620680321FFF7E8
:1021F00087F920682A460721BDE83840FFF73ABF33
:10220000052038BD37B50546006800238DF8063037
:1022100090F88E30012B0C4601D905203CE04B781C
:10222000032B04BF01238DF806300B7813F01F0336
:1022300008D14B88012BF0D110210DF10602FFF7D8
:1022400019FF29E0022BE8D14B88002BE5D18B88C0
:1022500013F00F0216D19DF80610DB0929B143EAED
:102260000201C9B2FEF78AFD0CE01343DBB28DF820
:10227000073003F00F03072B04D805210DF10702E7
:10228000FEF770FD9DF806302868221D0BB1052170
:1022900000E00621FFF734F903B030BDF0B54B681C
:1022A00089B0002714465A1C06460397029700F08F
:1022B000BE80002C00F0BB8091F808C090F88E2002
:1022C00004F10805BCF1000F75D0082B40F0AF8079
:1022D0000B68002B00F0AB805A8862819A8859788D
:1022E000A281DA881B78E28113F0600F6172237299
:1022F0000BD1504B53F82170002F53D003AA204626
:10230000294602ABB84702464DE003F020013AB33C
:1023100013F0800F24D149B10121069204AA059738
:102320008DF81C100495FFF7EBF80CE05B0639D52F
:1023300000230593069201230F2104AA8DF81C3077
:102340000495FFF797FE069B0293059B03930246B5
:1023500048BB11463046039AE389FEF704FE67E066
:1023600001F0FF0059B1002301210692304604AA72
:1023700005938DF81C100495FFF7C2F80CE05F067A
:1023800010D505900123069230460F2104AA8DF83E
:102390001C300495FFF76EFE069B0293059B03938A
:1023A000024600E0052203AB009302AB01933046E6
:1023B0002946002338E0032A09D1627A1D4B2046C2
:1023C00053F82260294603AA02ABB04730E0002B45
:1023D0002DD0E2895AB3227A140628D402F02004C0
:1023E00004F0FF0754B10A680592012104AA8DF890
:1023F0001CC004950693FFF783F80BE052060BD53B
:102400000A6805920F2104AA8DF81C7004950693A2
:10241000FFF730FE024600E0052203AB009302AB5B
:10242000019330462946012300F0ACFB00E0052073
:1024300009B0F0BD3844000037B5154D04462B688F
:10244000C06D9B68216E626A9847F8B9A3685A1EEE
:102450002369934212D204F11C0510222846616AB6
:1024600000F054F9284601A900F098F9636E019A2A
:102470009A4209D1074B2360002007E02B681B69B3
:1024800098470028E7D001E042F27A7003B030BDEF
:10249000CC05FF1FE12F00001FB52E4B9A68146971
:1024A000E26A42F6A3018A4218464FD0226F32B147
:1024B000E16E534299428CBF0023012300E0134692
:1024C000DB0740683DD5E16E0368994207D3531896
:1024D0004068013B83428CBF0023012300E00023BE
:1024E0007BB34FF0FF330293002303934CF2CF33BF
:1024F000994204D888184CF2CC33984201D802A8EB
:102500000EE0C1F5434202A8CC3200F0FFF8E26EC3
:10251000236F1A44A2F5434202A84CF2D031D03ABC
:1025200000F0F4F802A801A900F038F9636F019AED
:102530009A4202D042F6A10305E042F6A003E3620C
:1025400004E042F6A403E362002000E0012004B0AE
:1025500010BD00BFCC05FF1F044B002058619861DF
:1025600072B65A69013A5A6162B67047EC08FF1FA9
:1025700070B5044600681E4690F88E30154653B973
:102580008B8824F8103F09212246FEF7EBFB02233B
:102590002C60336070BD052070BD2DE9F341044609
:1025A00000681D4690F88E30012B90462CD80E788E
:1025B00016F01F0604F1100708D106213A46FEF76F
:1025C000D1FB238A03F00303238203E0012E04D10D
:1025D0000020208202232B6013E0022E10D18B8872
:1025E0008DF804300721002301AAADF80630FEF76C
:1025F000B9FBBDF8063003F0030323822E6000E030
:102600000520C8F8007000E0052002B0BDE8F081A8
:102610002DE9F0411546284A12780F4612B90020DC
:10262000BDE8F081202D41D823B1012B41D14FF0DD
:10263000040801E04FF00308FEF7B4FF1F4B5E7B78
:102640001C463EB100225A73FEF79EFF42F2127002
:10265000BDE8F081FEF798FF84F8208084F82160BF
:1026600084F8225084F8236037B12DB104F124009E
:1026700039462A4601F092FE94F846600F4A012E30
:10268000CDD195684DB16B7C3BB928688121203252
:102690002423FEF768FC00B96E7472B6A369013397
:1026A000A36162B6A369002BFCD1B8E70420BDE8A2
:1026B000F0810120BDE8F081D406FF1FEC08FF1F68
:1026C0002DE9F34104461048466B07690D467642F2
:1026D000904604EA060162198A1A32407F6C203063
:1026E00052420DF10703B84750B99DF8076036B95B
:1026F000404621462A4601F051FE304600E06C205B
:1027000002B0BDE8F08100BFCC05FF1FF8B504465C
:102710000F4605681646002A35D0FEF743FF1C4BCE
:102720001C491A6842F480221A601B4B4FF0414248
:102730009A6059604FF0434199601D6039469A6034
:1027400033468A0705D0144A11F8010B1070013B7B
:10275000F7D10A46C818801A03280F4803D952F83F
:10276000045B0560F6E723F00302114403F0030362
:102770000B44994204D0084A11F8015B1570F8E740
:102780000568FEF701FF636825601E446660F8BDBA
:102790003C800440B71DC1040020034037B54268A7
:1027A00012F0030204460D460BD0002301A9C2F12A
:1027B00004028DF804308DF805308DF80630FFF7EF
:1027C000A5FF23682B60034B1A6822F480221A604D
:1027D00003B030BD3C80044073B5044600F11C06D4
:1027E000174D616A30461022FFF790FF2B68E06DAD
:1027F0009B68626A1021984700BBE36D1033E36564
:10280000236E103B102B236601D90E4B01E013B150
:102810000D4B236012E02B681B699847054648B9A9
:10282000304601A9FFF7BAFF636E019A9A4203D1BD
:10283000064B2360284601E042F27A7002B070BD78
:10284000CC05FF1FD927000039240000E12F00002C
:1028500010B5104C70232370C0B1C369C3B11B689D
:10286000022B15D10C4B20461B6898472378DBB20E
:102870009A0609D4D90605D413F0010F0CBF002025
:10288000692010BD682010BD672010BD042010BD58
:102890006D2010BD00000240D006FF1F2DE9F0475B
:1028A00088B007460E461446DDF84480DDF84890AF
:1028B0001D46002B35D06A46FFF732FB38463146BD
:1028C0002246079BFFF74BFB60BB9DF840A0009E94
:1028D0004FEA0A6A6AF07F4A0CB3144B26F07F4233
:1028E00042F000721A60C3F804A0114A2B6813600A
:1028F0003846FFF7ADFF58B1B8F1000F01D0C8F866
:102900000060B9F1000F0DD00023C9F8003009E0D4
:10291000079B23F00302E41A15441E44DCE720461B
:1029200000E0042008B0BDE8F08700BF04000240CA
:102930000C0002402DE9F04788B007460D461446CA
:102940006A469946FFF7ECFA384629462246059B27
:10295000FFF705FB80BB29466A463846FFF7E0FAD9
:10296000009DDDF808806B42C8F1000213405E4212
:10297000AE424FEA092908BFC3EB080649F0FF0A37
:10298000CCB1059B0E4AC5EB0609A14528BFA1465F
:10299000B9FBF3F325F07F4141F080714AEA03432C
:1029A000116038465360FFF753FF28B9C9EB0404A0
:1029B0004D444644E4E7204608B0BDE8F08700BF38
:1029C0000400024030B1044B044A09040B43136075
:1029D000FFF73EBF04207047FFFF004004000240A5
:1029E00020B319B3134B9B7803F00303022B1FD0C2
:1029F000114B6FF03A421A604A780B78120442EA9F
:102A00000362CB781A438B7842EA03220B4B1A609D
:102A10004A790B79120442EA0362CB791A438B7923
:102A200042EA0322064B1A60FFF712BF04207047E8
:102A300000207047000002400400024008000240ED
:102A40000C00024070B50D4614461E46A8B1A2B156
:102A5000CBB20B4A1B041A430A4B1A60FFF7F8FE6D
:102A600060B9094B103D1A682260032D06D8082E64
:102A700004D104331B68636070BD042070BD00BFC7
:102A8000FFFF004104000240080002402DE9F04130
:102A900088B00C4615461E469DF8387080460028C2
:102AA0004DD0002A4BD06A46FFF73AFA069B44EA1B
:102AB0000602013B1A4240D1012F04EB060307D165
:102AC000002C3CD1082B3AD13F0667F07F4723E02A
:102AD000002F34D1013BFF2BF6D9B4F5000F2ED3D4
:102AE000194A9342F0D92AE0184B24F07F4242F071
:102AF00040721A60069B042B11D1154B1F60404693
:102B0000FFF7A6FEE0B9134B1B682B60069B082B52
:102B10000CD004351C44F61A002EE5D10BE0082B2E
:102B2000EDD103F1804303F50033E7E7084A12686B
:102B30006A600835EEE7304602E0652000E00420D8
:102B400008B0BDE8F08100BFFF0380000400024030
:102B50000C0002400800024038B5044680B14368CA
:102B600023B15B6800689847002363600025FEF787
:102B700017FA256084F88D50FEF706FA284638BD0E
:102B8000032038BD2DE9F041052A05460C46069F75
:102B9000079E12D10A7812F0600F07D0120605D4F2
:102BA000CA881AB1191C18BF012100E0012128466A
:102BB000C901BDE8F041FEF7E1B8CB8832689A421E
:102BC00088BF336080213A683368FEF7CCF901464C
:102BD00050B994F90030002B06DA28460A460B4615
:102BE000BDE8F041FEF7BFB90846BDE8F08100003E
:102BF00010B5FEF7D5F9084B1A6842B19C7C34B980
:102C00001C605C609C74FEF7BFF9204610BDFEF7A7
:102C1000BBF9042010BD00BF7C0DFF1F70B5224C16
:102C2000FEF7BEF9236823B1A57C15B9FEF7ACF910
:102C300017E0BDE87040FEF7A7B90C261B685643A5
:102C400033449A681279012A02D1586800F0A5F934
:102C500063681B681E44B3681B790BB9706898479A
:102C600001356368197AEAB29142E6D80E4B1868CA
:102C7000FFF772FF0446B0B9FFF7BAFF0B4B0C4ADF
:102C80009C6013600B4A41F23403D15849030AD5C2
:102C900009494FF40010C1F88400C1F88401D158EB
:102CA00021F48021D15070BD7C0DFF1FEC08FF1F67
:102CB000D806FF1F0070044000E100E0013938B57C
:102CC0001446082950D8DFE801F00517264A4A2E95
:102CD0004A4F51005368013B033349D8254B1B68C9
:102CE0009A69002A44DD93F84620012A40D172B641
:102CF0009A69013A9A610CE05268531E033337D83F
:102D00001C4B1B68DA6101221A7372B65A69013AC8
:102D10005A6162B62CE0174B18680021242220303B
:102D200001F045FB20E09378124D3BB9D3782BB9E5
:102D30001078012802D12B68587338BD2868626862
:102D40002146203001F02AFB2B686268DA610120FD
:102D5000187372B65A69013A5A6162B638BD054BAA
:102D60001B6800225A619A61012038BD052038BDD8
:102D7000002038BDD806FF1F83682DE9F3410546C2
:102D80002BB300240120AB681A79944220DA9B68A7
:102D90002E6813F824708DF807709EB107F00F08A5
:102DA000304603210DF10702FDF7DCFFB8F1070FF4
:102DB0000AD8FF0947EA480806EBC8060023F36073
:102DC000336102E0032000E004200134DBE701204E
:102DD00002B0BDE8F0817FB504461546002A00F038
:102DE000D580002800F0D2800139052900F2D0807A
:102DF000DFE801F06B0308192F49002303734374C4
:102E00008374C5E04368002B00F0C280037B127816
:102E10009A4200F0BD800BB1FFF7AEFF2B78237311
:102E20000023A37311E04368002B00F0B1801588E4
:102E3000437BB3EB152F40F0AB80837BEDB2AB420D
:102E400000F0A680FFF798FFA5732046FDF7A8FFC6
:102E5000A1E04368002B00F09B808368002B00F00A
:102E6000978000260120A3681A79964280F2938009
:102E70009B682A7813F82610914202D12068FDF74A
:102E80007DFF0136EFE74368002B00F08180836807
:102E9000002B7DD000260120A3681A7996427ADAA9
:102EA0009B682A7813F8263093420CD18DF80430B1
:102EB00003F00F03072B206804D8052101AAFDF7B2
:102EC00051FF00E004200136E6E71368187800F0AF
:102ED0001F0001285CD11979627B91425BD15A783D
:102EE000013A0A2A56D8DFE802F006121555555560
:102EF00055551F3D47005A88120A8DF80C205B88F3
:102F00008DF80D30636820461B6803211BE004F137
:102F10000F0601E004F11006636820461B680421D7
:102F2000324698476E6036E05A88297B120A8DF83F
:102F30000C205B888DF80D30AA68636851B11B685E
:102F400002922046092101AA9847019B6B60029BCF
:102F5000AB6020E06968019102921B68204606215F
:102F600001AA11E05B881B0AE3732A6863682046A4
:102F70001B680721023207E05B88237463681B68C3
:102F80002046082104F11002984704E0032002E0E3
:102F9000012000E0052004B070BD10B5044638B132
:102FA000FFF7EAFE00232373A3732360636010BD61
:102FB000032010BD10B5046894F88E406CB901244C
:102FC0001C6000F1100313600A790282122100686C
:102FD0001A46BDE81040FFF74DB8052010BD0000AF
:102FE000F8B5436A00F1580504460FCB85E80F0099
:102FF0005A220123E95C0133102B0A44FAD194F8D8
:103000005830D2B2934240F0A38094F859300A2B42
:1030100000F29B80DFE803F062062A379F3F626779
:103020009F977B00236E6268A360934218D8616EFD
:10303000C80706D5E06DA169884202D10BB1E360F3
:103040004CE0B4F85A0010F001000CD19A4238D983
:10305000D21AA366414B236001236260A360F8BDCE
:1030600042F27670F8BD42F27C70F8BD4FF0FF334B
:10307000E361236E102B4FF000008CBF384B394BAF
:1030800020622360F8BD384B1B6804F15C00DB68EC
:1030900007C89847F8BDE56D2846FEF7B3FDF8B1BF
:1030A000606E04F11801A84701280DD16268A36879
:1030B0009A4206D9D21AA366284B62602360A060A8
:1030C0000CE042F27870F8BD022846D1274C00216E
:1030D0002046702201F06BF9254B23600020F8BDDB
:1030E00042F27F70F8BDB4F85A3099072BD4DA0752
:1030F00006D513F4706F26D1BDE8F840FDF7D8BDB2
:10310000194BE06D1B68216E5B699847F8BDB4F8F8
:103110005A30E76D13F0010FC3F303220CBF0426EE
:103120000826042A0FD1FEF73DFA0F4802693946F6
:10313000556B334604F160022030A8470446FEF781
:1031400023FA2046F8BD0420F8BD42F27B70F8BD9A
:1031500042F27970F8BD42F21270F8BDE12F000022
:10316000D927000039240000CC05FF1F0407FF1FEA
:10317000B5080000002150222DE9F041704801F00F
:1031800016F9704A41F23403D15841F48021D150EC
:10319000D358590340F1BD806B4B93F80C2142F09A
:1031A000800283F80C21194691F80C21664B120617
:1031B000FAD441F204026349885840F4E020885070
:1031C00093F8402142F0800283F8402193F8442193
:1031D00042F0020283F844215C4B9B681C69E36F58
:1031E00001330AD05A4BB4F87C201A72120A5A7270
:1031F000B4F87E209A72120ADA72D4F88000554D23
:10320000431C06D01021FEF7B5FC10B9D4F880306D
:1032100000E0514B2B604A4B504D002283F84C206C
:1032200083F84D209A601A606A681E462F46002A6D
:103230007DD04B4CFDF7B4FE236813B1FDF7A4FE1F
:1032400075E0A374FDF7A0FE6560FDF7A9FE656952
:1032500015B1FDF799FE6DE084F8A150FDF794FEDD
:10326000404BE36184F8A15084F8A05004F11402AB
:1032700004F194030020D060106108329A42F9D121
:10328000DFF8DC80384BA36108F1140529462A4693
:10329000FEF7C8F818B12846FFF75EFC4AE00223A3
:1032A000C8F8005088F8A23005466368197AEAB277
:1032B000914218D919684FF00C0808FB02F84144F4
:1032C0008B681B79012B03D100200A1DFEF7E2F861
:1032D0006368196841448B681B7913B918460A1D45
:1032E00098470135E1E71E4B18683B6830605B6822
:1032F000B3601E4B1E601E4B402283F83523002115
:103300004FF400125A600A46FDF72CFD0020BDE87C
:10331000F0810E4B9B681A6992F8781021F0100129
:1033200082F878101B69DA6822F01002DA60012056
:10333000BDE8F0812068FFF70FFCFFF759FCF6E7C6
:10334000EC08FF1F0070044000200740CC05FF1F61
:103350008805FF1FDC06FF1F4805FF1FF804FF1F3D
:103360007C0DFF1F7520000020440000D806FF1FC1
:1033700000E100E010B50446FEF762FD094B62680B
:10338000DB68DB681A6108221A772178064C002076
:10339000FEF760FC20460021702201F008F8034B84
:1033A000236010BDCC05FF1F0407FF1FB5080000F8
:1033B000F8B515460F4600293AD0002A38D0002229
:1033C0002A601BB1012B35D1022600E001261A4BE1
:1033D000187800282FD0194CA37B23B1A06804F1E2
:1033E0002001FEF71FFB0123A37372B6636901334B
:1033F000636162B66069114B0028FBD193F820200D
:10340000B24207D0012E15D1022A42F2127018BF23
:103410000120F8BD93F8231093F8222042EA0122FC
:10342000D9690439914205D324333B602A60F8BD41
:103430000420F8BD0120F8BDD406FF1FEC08FF1FD3
:1034400038B50546006890F88E308BB98A888B783D
:103450002C4643EA022324F8103F04212246FEF7BB
:103460004FF8286822460821BDE83840FEF702BE22
:10347000052038BD436A5A6813B582611A684168ED
:10348000033A8A42044682601ED21B89FBB902A914
:10349000114801F8013D036920309B6998479DF868
:1034A000070070B96268A3689A4207D9D21AA36666
:1034B0000A4B236001236260A3600AE042F2787045
:1034C00007E042F2817004E042F2767001E042F2DD
:1034D000777002B010BD00BFCC05FF1FE12F0000C8
:1034E00008B5FEF7A5FB08B5FEF7A2FB08B5FEF789
:1034F0009FFB08B5FEF79CFB80B584B000AF7860F9
:103500007868FEF78BFDF860FB68002B03D1034B56
:103510001B68034898471037BD4680BDE006FF1F73
:1035200004F0014038B50446C8B1C2B1CDB20D486F
:103530002D0428430C4D1039286010686860032959
:1035400004D8082B02D1094B52681A602046FFF7B5
:103550007FF905462046FFF7CFFF284638BD0420F7
:1035600038BD00BFFFFF0043040002400C000240D2
:103570002DE9F043064689B00D461F461446002A41
:103580003FD06A46FEF7CCFC294630463A46039BBC
:10359000FEF7E5FC0546002835D1DDF8008067B36D
:1035A0001B4A23681360039B042B04F1040909D10F
:1035B00003F1804328F07F4203F5003342F0C062FC
:1035C0001A600CE0082B0AD1124B62681A6028F0CE
:1035D0007F4242F0E06204F1080943F8082C3046CB
:1035E000FFF736F93369044603B1984724B9039BC2
:1035F0004C469844FF1AD2E725463046FFF77CFF39
:1036000001E0042000E0284609B0BDE8F08300BFD7
:10361000080002400C0002402DE9F04788B0074640
:103620000C4690466A469A46FEF77AFC3846214692
:103630004246049BFEF793FC064648BB9DE83000DB
:10364000631E9844B8FBF5F305FB13827AB103FBC4
:10365000055808F1FF380AE03846FFF7F9F83B69EA
:10366000814603B19847B9F1000F0DD12C44444570
:103670000BD8094B24F07F4242F010621A60074BCE
:103680009A45E9D06B2004E04E463846FFF734FFF8
:10369000304608B0BDE8F087040002406B66656BF9
:1036A00038B5054640B1094B6FF03B421A60084BF4
:1036B000994203D06B2038BD042038BDFFF7C8F80D
:1036C00004462846FFF718FF204638BD0400024094
:1036D0006B66656B024B1A6801321A60704700BF57
:1036E000E808FF1F084BD3F8882042F47002C3F8A3
:1036F0008820064B4CF22052DA814DF62812DA81EE
:103700004FF4E9721A80704700ED00E00020054098
:10371000114B4FF0FF32C3F88020C3F88420C3F868
:103720008820C3F88C20C3F89020C3F89420C3F8F5
:103730009820C3F89C20C3F88021C3F88421C3F8E3
:103740008821C3F88C21C3F89021C3F89421C3F8D1
:103750009821C3F89C21704700E100E0022838B5A9
:10376000044601D1184D0BE00020FFF7C5FE012CE7
:1037700024D0F7E7EB689B680BB1284698471835CB
:103780002B68002BF6D1CCB9FDF70CFF0F4B1A6854
:1037900022F007021A609C60FFF7BAFF0C4B41F25F
:1037A00038029C600B4B995821F47851995041F2A2
:1037B0000402995821F4E021995062B6BFF36F8F4B
:1037C000BFF34F8F38BD00BF8C45000010E000E014
:1037D00000ED00E00070044038B5054600200C46BE
:1037E000FFF7BCFF084B1C60084B1D60084B4FF4F3
:1037F00040429A6084F3088884F30988A84700202F
:10380000BDE83840FFF7AABFE406FF1F7407FF1F9B
:1038100000ED00E008B501780020FEF71BFA0A4B26
:10382000D86943691B6998470220FFF797FFBFF3E8
:103830004F8F064A064BD16801F4E0610B43D36019
:10384000BFF34F8F00BFFDE7CC05FF1F00ED00E089
:103850000400FA052DE9F0411B4AC4681B4B476878
:103860008668146005465B68904654B11A699442B4
:1038700006D35B6901339C428CBF0424002400E022
:1038800004243846FEF7BEF9002808BF0424204669
:103890002978FEF7DFF9ACB90D4D20462F60FFF710
:1038A0005DFF0C4B1E60D8F800301BB183F3088815
:1038B00083F309882B68304698470020BDE8F04123
:1038C000FFF74CBFBDE8F0817807FF1FCC05FF1F55
:1038D0000007FF1F7C07FF1F38B504464068FEF74E
:1038E00091F930B101206568FFF738FFA068A8475B
:1038F00000E004202178BDE83840FEF7ABB90000B5
:10390000F8B52E4EF368DB6800225A611A611B7FFE
:10391000042B044605D133681B699847002C08BF67
:103920000446F368254DDB682046197FFEF792F9BF
:1039300042F212739C4240D1EB68DB681B7F082B7C
:103940003BD12B681B6998470746002835D11C4C92
:1039500094F85930042B1ED1E66D3046FEF752F92B
:1039600058B33846FFF7FAFEB4F85A309B070FD524
:10397000144A236E13606A6853B111698B421CD3D9
:1039800052690132934218D883F3088883F3098877
:10399000606EB047F8BD082B0FD10220FFF7DEFEA6
:1039A000BFF34F8F084A094BD16801F4E0610B4324
:1039B000D360BFF34F8F00BFFDE7F8BDCC05FF1FFD
:1039C0000407FF1FFC06FF1F00ED00E00400FA05DE
:1039D0002DE9F043354FFB68DB68D3F810808BB0DE
:1039E0000646B8F1000F05D180F800804046FFF789
:1039F00087FF57E00122D96802705D691A7FB8F12C
:103A0000200F34BF4446202421B102A8224600F0F2
:103A1000C5FC2AE0032A07D13B6828465B6821469B
:103A200002AA9847814613E0102A1DD193F81D90F1
:103A3000FDF7B8FD3B69CDF80090D3F83CC007F125
:103A40002000294602AA2346E0478146FDF79CFD57
:103A5000B9F1000F08D0F869436902A99C680022F7
:103A60000123A047484612E02544F8694369C4EBA6
:103A700008089F6802A922460123B847B8F1000F41
:103A800004D1FFF73DFF86F800800BE020B1FFF77F
:103A900037FF0023337005E0044BDB68DB68C3F8B5
:103AA00010805D6100200BB0BDE8F083CC05FF1FE6
:103AB0002DE9F04FDFF86C91D9F80C30DA68156910
:103AC00085B00646C84625B905702846FFF718FF99
:103AD000A0E001230370D9F81C00576942694FF038
:103AE000000A5468CDF808A003A902AAA04704461A
:103AF00050B1D9F81C004369DB6898472046FFF7AE
:103B0000FFFE86F800A085E0DDF808B0BBF1000FED
:103B100006D142F21270FFF7F3FE86F800B079E0AA
:103B2000D8F80C30DB681A7FAB4528BFAB46082AB3
:103B3000CDF808B026D1DDF80C90C3F80C90C3F88E
:103B400018B0024635490B69C2EB0B00C3F11003F4
:103B50000093019000230098834203EB020A35D0C2
:103B60000198834218D02D48D0F810C00CF1010AFA
:103B7000C0F810A009EB020A1AF803A000F80CA084
:103B80000133E8E7D8F80030039A9B683846594675
:103B90009847029B04461F44029BED1A04D120461D
:103BA000FFF7AEFE357035E054B1D8F81C0043691C
:103BB000DB6898472046FFF7A3FE0023337029E017
:103BC000D8F80C30DB681D615F6123E000231448E6
:103BD0000B61124B4362C3682BB102699A420AD04F
:103BE0000132026101E0836E1BB90368984710B18E
:103BF00005E0013B8366DA45CED05246A2E742F2A9
:103C00007D739842C8D042F27474A04214BF044637
:103C10000024C1E7002005B0BDE8F08FE806FF1FD3
:103C20000407FF1FCC05FF1F154B164A164910B598
:103C30009A60164B164A9A42C3EB0101184618BF08
:103C4000002305D1134B14490022C91A184605E078
:103C50008B42F7D0C45CD4540133F9E78A424FF069
:103C6000000302D083540132F8E70C4A0C49891A48
:103C70008B4203D00020D0540133F9E710BD00BFC0
:103C800000ED00E000000000104900006C4600005C
:103C90000004FF1FA406FF1F4009FF1F000AFF1FAB
:103CA000200EFF1F2DE9F04FA74B1B6887B0002B9C
:103CB00000F047811C68A36893F880905FFA89F947
:103CC00019F0080F00F0098193F890200821D2B272
:103CD00083F88010C2F3C000636815095FFA80FAA8
:103CE00023F4FF734AEA450823F001034FEA08165C
:103CF00043EA4511A319C2F3800241EA001093F888
:103D00002D3040EAC2005B06076840F1E680C7F349
:103D1000830BBBF10D00D0F1000B5BEB000BBBF193
:103D2000000F01D084F82321C7F30947BAF1000F2F
:103D30004CD0A21902F12801936A3B44936291F896
:103D400005E0CEF3C00C8CF0010C6CF3C30E04EB59
:103D500008125FFA8EFE506ACEF3001C8CF0010C44
:103D60006CF3041EC31A81F805E004D08988C1F3FE
:103D70000901B94223D92644B36A0493136A039311
:103D800096F82D306FF3861386F82D30B38DC3F37C
:103D900009039F4240F09080002D40F08D8094F800
:103DA000233104EBC303598A536A994240F2848059
:103DB000206880212A462B46FDF7D5F88DE0204665
:103DC00045F08001126AFDF7A9F986E01DB917B91F
:103DD0000495039570E0A01990F82D20C2F34013CC
:103DE000B3B9C2F3001241EAC2014A6804EB0811F8
:103DF000D1F820E0816A7144914203D1002384F814
:103E0000203105E0BB42F9D0985CC8540133F9E792
:103E1000A21904EB0818936A3B449362D8F8242053
:103E2000BDB9BBF1000F14D0802120468DE80C00F5
:103E3000FDF761F894F82D1041F0080184F82D1079
:103E400094F83D1041F0080184F83D109DE80C0005
:103E50000AE0A11991F82D00C0F3C00E8EF0010EFA
:103E60006EF3C30081F82D00A11928314879C0F301
:103E7000001E8EF0010E6EF304104871D8F8240075
:103E800030B1D31A04D08A88C2F30902BA420CD9DD
:103E90002644B26A0492D8F82020039296F82D2086
:103EA0006FF3861286F82D2006E020462946D8F8C2
:103EB0002020FDF7DBF810E045EACA158DF815B0B3
:103EC0008DF81450206803A9FCF7D4FFA36893F879
:103ED000942002F0DF0283F8942019F0010F11D032
:103EE000A268012384F8213182F880300023102257
:103EF00003938DF814208DF815302068049303A9DE
:103F0000FCF7B8FF19F0800F13D0A368802283F864
:103F1000802094F83D305A0703D494F82D305B0785
:103F200007D580212046FDF739F920460021FDF70D
:103F300035F9A36893F85C2102F0FF010AB183F818
:103F40005C1107B0BDE8F08FEC08FF1F7047000060
:103F50002DE9FF4872B6804B00221A6062B67F4B93
:103F6000DA78042A2CD07E4C7E4E41F2380306F1DA
:103F70002000E25842F47852E25041F20403E25841
:103F800042F44032E25033695B689847764BF36302
:103F9000336906F120001B6C9847B3681B6898478B
:103FA00041F24402714BA1581960B3681B6993F840
:103FB000840093F87810C507C1F3001110D41AE0FB
:103FC0005A7802F09F025A70FF23644AD278012A7D
:103FD00003D1674A92785407C5D4013BF5D1C2E7B3
:103FE00049B9A258120F4FF0A0730132B3FBF2F29D
:103FF000604B1A6053E093F885305F4ADB4303F06F
:104000000F03013331B15D49B2FBF3F0884201D8AF
:10401000013BF8E7B2FBF3F11A46574C5848B4FBA2
:10402000F2F4844201D90132F7E7012B01D1082AC9
:1040300035D8013B1806013A00F07060120440EADE
:10404000037302F4702241F24400454C13432350A1
:10405000484B19604B4B1A78012A1A4602D10123AA
:1040600013701CE0484B597801F0CF0141F020015A
:104070005970197801F0C30141F030011970D978F5
:1040800001F09F0141F02001D970197B01F0FC0182
:1040900041F0020119739979C806FCD4DFE73B4B64
:1040A0003B4A3C4F00216FF07F401160586099609F
:1040B000072119602F4B38491B68DB00B3FBF1F374
:1040C0003B600BB901233B603368344C1B68984755
:1040D000B3685B689847B368D3F8109054F8185CDD
:1040E000A4F1180065B199F878301D4206D054F853
:1040F0000C2C54F8043C5268996990471834EDE749
:104100003A684FF47A73A2FB03234FEAD20A284697
:1041100008214AEA437A4FEAD30BFDF72BFD38B961
:104120004CF204031F684FF44043D3F8008001E0D1
:10413000A8462F463846FDF765FD88BB00220023C0
:1041400003A5D5E90045CDE904237DE0AFF3008068
:10415000000E2707000000003C09FF1F00E0074099
:1041600000700440CC05FF1F2006FF1F2808FF1F1A
:1041700000D007408C06FF1F006CDC02FF2C3101D1
:1041800040787D01E408FF1F0040064010E000E099
:10419000E808FF1FE407FF1F40420F00A44500008E
:1041A000FEF77AF90028C9D0B368634C1B6993F80D
:1041B000863013F0010F5EA3D3E9002313D15F49CA
:1041C0000978090607D4D4E90001994208BF904252
:1041D00009D1217A39B13846414601920093FFF75F
:1041E000FBFA009B019AB9F87A1041F288304FF639
:1041F000FF7E714514BF8E468646D4E90001994280
:1042000008BF904204BF4C4BD3F80CE0BEF57A7F58
:1042100038BF4FF47A7EAEFB0A450EFB0B55484B78
:1042200047491868474B9B680A689042F7D16FEA84
:10423000030E2EF07F4E020612EB0E0A4FEA1023F9
:1042400043F1000BCDE904AB54EA050B2BD03C4BFA
:104250003C491A6889681B689A42F8D14FEA122AC9
:104260004FEA026BCDF80CA0CDF808B0DDE90223CF
:10427000DDE904ABC943B2EB0A0263EB0B0321F0A7
:104280007F41521843F10003AB4208BFA2420AD358
:104290003846FDF7B7FC30B1FEF7FEF818B13846E6
:1042A0004146FFF799FADFF8A4B05BF8181CABF1B0
:1042B000180A0029C8D099F87800014205D05BF8A7
:1042C0000C1C50460968884710B90BF1180BECE735
:1042D000BAF1000FB8D01C4C22685AB199F8781086
:1042E0000A4205D0A24503D0E26820469268904772
:1042F0001834F1E7DAF81020C6F81CA01AB11268D9
:104300000AB150469047F069436913B11B6803B185
:104310009847F3681B689847F469F3685B689847A7
:10432000E368DB68002BF8D020469847F5E700BF2C
:104330009A1F52949ECD043B00FF002000F00740DE
:10434000E808FF1F10E000E08C450000A4450000D5
:1043500070B50E4B0E4DED1AAD1000241E46AC424A
:1043600004D056F8242090470134F8E700F06AF9A9
:10437000084D094BED1AAD1000241E46AC4204D086
:1043800056F8242090470134F8E770BD64460000D9
:1043900064460000684600006446000010B5002333
:1043A000934203D0CC5CC4540133F9E710BD0244FE
:1043B0000346934202D003F8011BFAE77047080056
:1043C0001000180020003000400060008000C00095
:1043D000000180010002000300040006802101703A
:1043E00002780A42FCD070470040000000600000E4
:1043F0000080000000C000000000010000800100FB
:104400000000020000000000000004000168F0222B
:1044100012040A430260BFF36F8FBFF34F8F7047E0
:1044200025140000C10800001D1100006D100000DF
:10443000F70E00002F1200009B250000052200004F
:1044400000000000052200000000000037200000EE
:104450003F210000000000001D210000C7210000D6
:10446000B52F0000413400007125000095140000B4
:104470009B2F0000D72D000001000000000000006D
:10448000000000000000000000000000391D0000D6
:1044900000000000191D000000000000551E000073
:1044A000D1390000F51E0000B13A0000D91C00000F
:1044B00000000000B91C0000000000000116000010
:1044C0000000000075330000B13A000055380000CC
:1044D00000000000D938000000000000153800007E
:1044E00000000000F91C00000000000000000000B7
:1044F00000000000891C000000000000A11900005D
:1045000000000000A11E0000D139000000000000E2
:104510000000000000000000000000000001024652
:1045200059180000A13600000000000019360000F4
:104530007135000025180000E1290000C5290000A0
:10454000352900009D280000D91700000000000058
:1045500025350000452A00008D2A000005190000BD
:10456000911F00000000000000000000000000009B
:104570000000000041060000C1260000D90900002B
:10458000390B000000000000990600001000000038
:104590000000000000000000D44500000000000002
:1045A000E4450000000000000000000000000000E2
:1045B00000000000000000000000000000000000FB
:1045C0004B070000410700006F0B000000000000D7
:1045D00000000000DD150000753100001D2C0000FA
:1045E000CD15000059250000B13300001126000050
:1045F000BD150000B9150000B51500000000000051
:10460000A11B00007D160000B10700005D0700003F
:104610002C08FF1F0D060000890C00003D0C000057
:10462000C90B000029060000010C0000B9180000A9
:104630008D1900004D190000191A0000000000003B
:1046400000000000F8B500BFF8BC08BC9E467047EB
:0C465000F8B500BFF8BC08BC9E467047DF
:08465C0008BEFF7F0100000011
:044664003504000019
:044668001104000039
:10466C0009022900010100C0320904000002030004
:10467C000003092100010001224C000705810340C1
:10468C000001070502034000010600FF0901A1011A
:10469C00850119012901150026FF00750895239144
:1046AC0002850219012901150026FF0075089523C2
:1046BC009102850319012901150026FF0075089543
:1046CC00238102850419012901150026FF007508B4
:1046DC0095238102C03A0355006C00740069006D8B
:1046EC0000610074006500200047006100640067F1
:1046FC00006500740020004C00610062006F0072C5
:10470C0000610074006F0072006900650073002482
:10471C0003550048004B00200042006F006F0074EE
:10472C00006C006F00610064006500720000000006
:10473C0000000000040000003A000000240000000B
:10474C002E000000220000007405FF1F0101000074
:10475C0081034000020340006805FF1F4D1A000052
:10476C00010000002E034D004300550020004800BE
:10477C00490044002000470045004E00450052000F
:10478C004900430020004400450056004900430006
:10479C00450000006405FF1F7504FF1FAF04FF1FD9
:1047AC000405FF1F9A05FF1F6405FF1F040000008E
:1047BC005805FF1F010000003405FF1FD404FF1F24
:1047CC000904000004030904BD2C000000000000D3
:1047DC00E804FF1F010000007C05FF1F0300000020
:1047EC00BC05FF1F01000000120100020000004088
:1047FC00501D206102000102000122034200410011
:10480C004400200053005400520049004E00470061
:10481C00000000000000000000000000000000008C
:10482C0002000000F004FF1F00000000144600000E
:10483C002C06FF1F004600009006FF1F1C450000C1
:10484C008C4500000000000000000000000000008B
:10485C00000000000000000000000000000000004C
:10486C00000000000000000000000000000000003C
:10487C00000000000000000000000000000000002C
:10488C0000000000E807FF1FA407FF1F0000000046
:10489C00FFFF070001000000744500000080FF1FAF
:1048AC00FFFF0020010000002C460000000000402B
:1048BC00FFFF074000000000BC45000000F00F4067
:1048CC00FFFF0F4000000000BC450000000000E0AE
:1048DC00FFFF0FE000000000BC45000000000000DE
:1048EC00000000000000000000000000000040017B
:1048FC006D1600004D1D00008C4400008007FF1F4A
:04490C0000000000A7
:104E000000000000000000000000000000000000A2
:104E10000000000000000000000000000000000092
:104E20000000000000000000000000000000000082
:104E30000000000000000000000000000000000072
:04000003000004D91C
:00000001FF
